{"contracts/mocks/MockAavePool.sol":{"MockAavePool":{"abi":[{"anonymous":false,"inputs":[{"indexed":false,"internalType":"address","name":"receiver","type":"address"},{"indexed":false,"internalType":"address","name":"asset","type":"address"},{"indexed":false,"internalType":"uint256","name":"amount","type":"uint256"},{"indexed":false,"internalType":"bytes","name":"params","type":"bytes"}],"name":"FlashLoan","type":"event"},{"inputs":[],"name":"PREMIUM_BPS","outputs":[{"internalType":"uint256","name":"","type":"uint256"}],"stateMutability":"view","type":"function"},{"inputs":[{"internalType":"address","name":"token","type":"address"},{"internalType":"uint256","name":"amount","type":"uint256"}],"name":"depositLiquidity","outputs":[],"stateMutability":"nonpayable","type":"function"},{"inputs":[{"internalType":"address","name":"receiverAddress","type":"address"},{"internalType":"address","name":"asset","type":"address"},{"internalType":"uint256","name":"amount","type":"uint256"},{"internalType":"bytes","name":"params","type":"bytes"},{"internalType":"uint16","name":"","type":"uint16"}],"name":"flashLoanSimple","outputs":[],"stateMutability":"nonpayable","type":"function"}],"evm":{"bytecode":{"linkReferences":{},"object":"608080604052346100165761054d908161001c8239f35b600080fdfe6080604052600436101561001257600080fd5b6000803560e01c90816339b41b4a1461004a5750806342b0b77c146100455763e22d70501461004057600080fd5b61018a565b610114565b346100cf5760403660031901126100cf57602060806100676100d2565b6323b872dd60e01b8252336084523060a45260243560c4528184607f1960e401926001600160a01b03165af180156100ca576100a05780f35b60203d81116100c3575b806100b76100bf926101ed565b608001610237565b5080f35b503d6100aa565b61026a565b80fd5b600435906001600160a01b03821682036100e857565b600080fd5b602435906001600160a01b03821682036100e857565b6084359061ffff821682036100e857565b346100e85760a03660031901126100e85761012d6100d2565b6101356100ed565b906064359167ffffffffffffffff918284116100e857366023850112156100e85783600401359283116100e85736602484860101116100e85760246101889461017c610103565b5001916044359161034a565b005b346100e85760003660031901126100e857602060405160098152f35b634e487b7160e01b600052601160045260246000fd5b906009820291808304600914901517156101d257565b6101a6565b634e487b7160e01b600052604160045260246000fd5b601f80199101166080016080811067ffffffffffffffff82111761021057604052565b6101d7565b90601f8019910116810190811067ffffffffffffffff82111761021057604052565b602090607f1901126100e85760805180151581036100e85790565b908160209103126100e8575180151581036100e85790565b6040513d6000823e3d90fd5b908060209392818452848401376000828201840152601f01601f1916010190565b919360a0936102c99795600180871b038094168552602085015260408401521660608201528160808201520191610276565b90565b3d15610307573d9067ffffffffffffffff821161021057604051916102fb601f8201601f191660200184610215565b82523d6000602084013e565b606090565b919082018092116101d257565b6001600160a01b0391821681529116602082015260408101919091526080606082018190526102c993910191610276565b919092949361036361035b836101bc565b612710900490565b60405163a9059cbb60e01b81526001600160a01b0385811660048301526024820185905286169760209490929091858160448160008e5af180156100ca576104fa575b50600080886040516103e0816103d28a8a8d840196631b11d0ff60e01b88528a8c339260248801610297565b03601f198101835282610215565b5190828a5af16103ee6102cc565b90156104b757506104406000989961040787938561030c565b6040516323b872dd60e01b81526001600160a01b038a1660048201523060248201526044810191909152998a9283919082906064820190565b03925af19384156100ca577f221abde4e8797f48fec3f6af7f5c2a73669494fbb7957b73f3d9a54fc014c15e9761048495610489575b505060405195869586610319565b0390a1565b816104a892903d106104b0575b6104a08183610215565b810190610252565b503880610476565b503d610496565b85815191826104f75760405162461bcd60e51b815260206004820152600f60248201526e18d85b1b189858dac819985a5b1959608a1b6044820152606490fd5b01fd5b61051090863d88116104b0576104a08183610215565b50386103a656fea2646970667358221220596d0dfaa2c0027b25cf231909da6d49e44c094fc7025808c95d510129337d3b64736f6c63430008140033","opcodes":"PUSH1 0x80 DUP1 PUSH1 0x40 MSTORE CALLVALUE PUSH2 0x16 JUMPI PUSH2 0x54D SWAP1 DUP2 PUSH2 0x1C DUP3 CODECOPY RETURN JUMPDEST PUSH1 0x0 DUP1 REVERT INVALID PUSH1 0x80 PUSH1 0x40 MSTORE PUSH1 0x4 CALLDATASIZE LT ISZERO PUSH2 0x12 JUMPI PUSH1 0x0 DUP1 REVERT JUMPDEST PUSH1 0x0 DUP1 CALLDATALOAD PUSH1 0xE0 SHR SWAP1 DUP2 PUSH4 0x39B41B4A EQ PUSH2 0x4A JUMPI POP DUP1 PUSH4 0x42B0B77C EQ PUSH2 0x45 JUMPI PUSH4 0xE22D7050 EQ PUSH2 0x40 JUMPI PUSH1 0x0 DUP1 REVERT JUMPDEST PUSH2 0x18A JUMP JUMPDEST PUSH2 0x114 JUMP JUMPDEST CALLVALUE PUSH2 0xCF JUMPI PUSH1 0x40 CALLDATASIZE PUSH1 0x3 NOT ADD SLT PUSH2 0xCF JUMPI PUSH1 0x20 PUSH1 0x80 PUSH2 0x67 PUSH2 0xD2 JUMP JUMPDEST PUSH4 0x23B872DD PUSH1 0xE0 SHL DUP3 MSTORE CALLER PUSH1 0x84 MSTORE ADDRESS PUSH1 0xA4 MSTORE PUSH1 0x24 CALLDATALOAD PUSH1 0xC4 MSTORE DUP2 DUP5 PUSH1 0x7F NOT PUSH1 0xE4 ADD SWAP3 PUSH1 0x1 PUSH1 0x1 PUSH1 0xA0 SHL SUB AND GAS CALL DUP1 ISZERO PUSH2 0xCA JUMPI PUSH2 0xA0 JUMPI DUP1 RETURN JUMPDEST PUSH1 0x20 RETURNDATASIZE DUP2 GT PUSH2 0xC3 JUMPI JUMPDEST DUP1 PUSH2 0xB7 PUSH2 0xBF SWAP3 PUSH2 0x1ED JUMP JUMPDEST PUSH1 0x80 ADD PUSH2 0x237 JUMP JUMPDEST POP DUP1 RETURN JUMPDEST POP RETURNDATASIZE PUSH2 0xAA JUMP JUMPDEST PUSH2 0x26A JUMP JUMPDEST DUP1 REVERT JUMPDEST PUSH1 0x4 CALLDATALOAD SWAP1 PUSH1 0x1 PUSH1 0x1 PUSH1 0xA0 SHL SUB DUP3 AND DUP3 SUB PUSH2 0xE8 JUMPI JUMP JUMPDEST PUSH1 0x0 DUP1 REVERT JUMPDEST PUSH1 0x24 CALLDATALOAD SWAP1 PUSH1 0x1 PUSH1 0x1 PUSH1 0xA0 SHL SUB DUP3 AND DUP3 SUB PUSH2 0xE8 JUMPI JUMP JUMPDEST PUSH1 0x84 CALLDATALOAD SWAP1 PUSH2 0xFFFF DUP3 AND DUP3 SUB PUSH2 0xE8 JUMPI JUMP JUMPDEST CALLVALUE PUSH2 0xE8 JUMPI PUSH1 0xA0 CALLDATASIZE PUSH1 0x3 NOT ADD SLT PUSH2 0xE8 JUMPI PUSH2 0x12D PUSH2 0xD2 JUMP JUMPDEST PUSH2 0x135 PUSH2 0xED JUMP JUMPDEST SWAP1 PUSH1 0x64 CALLDATALOAD SWAP2 PUSH8 0xFFFFFFFFFFFFFFFF SWAP2 DUP3 DUP5 GT PUSH2 0xE8 JUMPI CALLDATASIZE PUSH1 0x23 DUP6 ADD SLT ISZERO PUSH2 0xE8 JUMPI DUP4 PUSH1 0x4 ADD CALLDATALOAD SWAP3 DUP4 GT PUSH2 0xE8 JUMPI CALLDATASIZE PUSH1 0x24 DUP5 DUP7 ADD ADD GT PUSH2 0xE8 JUMPI PUSH1 0x24 PUSH2 0x188 SWAP5 PUSH2 0x17C PUSH2 0x103 JUMP JUMPDEST POP ADD SWAP2 PUSH1 0x44 CALLDATALOAD SWAP2 PUSH2 0x34A JUMP JUMPDEST STOP JUMPDEST CALLVALUE PUSH2 0xE8 JUMPI PUSH1 0x0 CALLDATASIZE PUSH1 0x3 NOT ADD SLT PUSH2 0xE8 JUMPI PUSH1 0x20 PUSH1 0x40 MLOAD PUSH1 0x9 DUP2 MSTORE RETURN JUMPDEST PUSH4 0x4E487B71 PUSH1 0xE0 SHL PUSH1 0x0 MSTORE PUSH1 0x11 PUSH1 0x4 MSTORE PUSH1 0x24 PUSH1 0x0 REVERT JUMPDEST SWAP1 PUSH1 0x9 DUP3 MUL SWAP2 DUP1 DUP4 DIV PUSH1 0x9 EQ SWAP1 ISZERO OR ISZERO PUSH2 0x1D2 JUMPI JUMP JUMPDEST PUSH2 0x1A6 JUMP JUMPDEST PUSH4 0x4E487B71 PUSH1 0xE0 SHL PUSH1 0x0 MSTORE PUSH1 0x41 PUSH1 0x4 MSTORE PUSH1 0x24 PUSH1 0x0 REVERT JUMPDEST PUSH1 0x1F DUP1 NOT SWAP2 ADD AND PUSH1 0x80 ADD PUSH1 0x80 DUP2 LT PUSH8 0xFFFFFFFFFFFFFFFF DUP3 GT OR PUSH2 0x210 JUMPI PUSH1 0x40 MSTORE JUMP JUMPDEST PUSH2 0x1D7 JUMP JUMPDEST SWAP1 PUSH1 0x1F DUP1 NOT SWAP2 ADD AND DUP2 ADD SWAP1 DUP2 LT PUSH8 0xFFFFFFFFFFFFFFFF DUP3 GT OR PUSH2 0x210 JUMPI PUSH1 0x40 MSTORE JUMP JUMPDEST PUSH1 0x20 SWAP1 PUSH1 0x7F NOT ADD SLT PUSH2 0xE8 JUMPI PUSH1 0x80 MLOAD DUP1 ISZERO ISZERO DUP2 SUB PUSH2 0xE8 JUMPI SWAP1 JUMP JUMPDEST SWAP1 DUP2 PUSH1 0x20 SWAP2 SUB SLT PUSH2 0xE8 JUMPI MLOAD DUP1 ISZERO ISZERO DUP2 SUB PUSH2 0xE8 JUMPI SWAP1 JUMP JUMPDEST PUSH1 0x40 MLOAD RETURNDATASIZE PUSH1 0x0 DUP3 RETURNDATACOPY RETURNDATASIZE SWAP1 REVERT JUMPDEST SWAP1 DUP1 PUSH1 0x20 SWAP4 SWAP3 DUP2 DUP5 MSTORE DUP5 DUP5 ADD CALLDATACOPY PUSH1 0x0 DUP3 DUP3 ADD DUP5 ADD MSTORE PUSH1 0x1F ADD PUSH1 0x1F NOT AND ADD ADD SWAP1 JUMP JUMPDEST SWAP2 SWAP4 PUSH1 0xA0 SWAP4 PUSH2 0x2C9 SWAP8 SWAP6 PUSH1 0x1 DUP1 DUP8 SHL SUB DUP1 SWAP5 AND DUP6 MSTORE PUSH1 0x20 DUP6 ADD MSTORE PUSH1 0x40 DUP5 ADD MSTORE AND PUSH1 0x60 DUP3 ADD MSTORE DUP2 PUSH1 0x80 DUP3 ADD MSTORE ADD SWAP2 PUSH2 0x276 JUMP JUMPDEST SWAP1 JUMP JUMPDEST RETURNDATASIZE ISZERO PUSH2 0x307 JUMPI RETURNDATASIZE SWAP1 PUSH8 0xFFFFFFFFFFFFFFFF DUP3 GT PUSH2 0x210 JUMPI PUSH1 0x40 MLOAD SWAP2 PUSH2 0x2FB PUSH1 0x1F DUP3 ADD PUSH1 0x1F NOT AND PUSH1 0x20 ADD DUP5 PUSH2 0x215 JUMP JUMPDEST DUP3 MSTORE RETURNDATASIZE PUSH1 0x0 PUSH1 0x20 DUP5 ADD RETURNDATACOPY JUMP JUMPDEST PUSH1 0x60 SWAP1 JUMP JUMPDEST SWAP2 SWAP1 DUP3 ADD DUP1 SWAP3 GT PUSH2 0x1D2 JUMPI JUMP JUMPDEST PUSH1 0x1 PUSH1 0x1 PUSH1 0xA0 SHL SUB SWAP2 DUP3 AND DUP2 MSTORE SWAP2 AND PUSH1 0x20 DUP3 ADD MSTORE PUSH1 0x40 DUP2 ADD SWAP2 SWAP1 SWAP2 MSTORE PUSH1 0x80 PUSH1 0x60 DUP3 ADD DUP2 SWAP1 MSTORE PUSH2 0x2C9 SWAP4 SWAP2 ADD SWAP2 PUSH2 0x276 JUMP JUMPDEST SWAP2 SWAP1 SWAP3 SWAP5 SWAP4 PUSH2 0x363 PUSH2 0x35B DUP4 PUSH2 0x1BC JUMP JUMPDEST PUSH2 0x2710 SWAP1 DIV SWAP1 JUMP JUMPDEST PUSH1 0x40 MLOAD PUSH4 0xA9059CBB PUSH1 0xE0 SHL DUP2 MSTORE PUSH1 0x1 PUSH1 0x1 PUSH1 0xA0 SHL SUB DUP6 DUP2 AND PUSH1 0x4 DUP4 ADD MSTORE PUSH1 0x24 DUP3 ADD DUP6 SWAP1 MSTORE DUP7 AND SWAP8 PUSH1 0x20 SWAP5 SWAP1 SWAP3 SWAP1 SWAP2 DUP6 DUP2 PUSH1 0x44 DUP2 PUSH1 0x0 DUP15 GAS CALL DUP1 ISZERO PUSH2 0xCA JUMPI PUSH2 0x4FA JUMPI JUMPDEST POP PUSH1 0x0 DUP1 DUP9 PUSH1 0x40 MLOAD PUSH2 0x3E0 DUP2 PUSH2 0x3D2 DUP11 DUP11 DUP14 DUP5 ADD SWAP7 PUSH4 0x1B11D0FF PUSH1 0xE0 SHL DUP9 MSTORE DUP11 DUP13 CALLER SWAP3 PUSH1 0x24 DUP9 ADD PUSH2 0x297 JUMP JUMPDEST SUB PUSH1 0x1F NOT DUP2 ADD DUP4 MSTORE DUP3 PUSH2 0x215 JUMP JUMPDEST MLOAD SWAP1 DUP3 DUP11 GAS CALL PUSH2 0x3EE PUSH2 0x2CC JUMP JUMPDEST SWAP1 ISZERO PUSH2 0x4B7 JUMPI POP PUSH2 0x440 PUSH1 0x0 SWAP9 SWAP10 PUSH2 0x407 DUP8 SWAP4 DUP6 PUSH2 0x30C JUMP JUMPDEST PUSH1 0x40 MLOAD PUSH4 0x23B872DD PUSH1 0xE0 SHL DUP2 MSTORE PUSH1 0x1 PUSH1 0x1 PUSH1 0xA0 SHL SUB DUP11 AND PUSH1 0x4 DUP3 ADD MSTORE ADDRESS PUSH1 0x24 DUP3 ADD MSTORE PUSH1 0x44 DUP2 ADD SWAP2 SWAP1 SWAP2 MSTORE SWAP10 DUP11 SWAP3 DUP4 SWAP2 SWAP1 DUP3 SWAP1 PUSH1 0x64 DUP3 ADD SWAP1 JUMP JUMPDEST SUB SWAP3 GAS CALL SWAP4 DUP5 ISZERO PUSH2 0xCA JUMPI PUSH32 0x221ABDE4E8797F48FEC3F6AF7F5C2A73669494FBB7957B73F3D9A54FC014C15E SWAP8 PUSH2 0x484 SWAP6 PUSH2 0x489 JUMPI JUMPDEST POP POP PUSH1 0x40 MLOAD SWAP6 DUP7 SWAP6 DUP7 PUSH2 0x319 JUMP JUMPDEST SUB SWAP1 LOG1 JUMP JUMPDEST DUP2 PUSH2 0x4A8 SWAP3 SWAP1 RETURNDATASIZE LT PUSH2 0x4B0 JUMPI JUMPDEST PUSH2 0x4A0 DUP2 DUP4 PUSH2 0x215 JUMP JUMPDEST DUP2 ADD SWAP1 PUSH2 0x252 JUMP JUMPDEST POP CODESIZE DUP1 PUSH2 0x476 JUMP JUMPDEST POP RETURNDATASIZE PUSH2 0x496 JUMP JUMPDEST DUP6 DUP2 MLOAD SWAP2 DUP3 PUSH2 0x4F7 JUMPI PUSH1 0x40 MLOAD PUSH3 0x461BCD PUSH1 0xE5 SHL DUP2 MSTORE PUSH1 0x20 PUSH1 0x4 DUP3 ADD MSTORE PUSH1 0xF PUSH1 0x24 DUP3 ADD MSTORE PUSH15 0x18D85B1B189858DAC819985A5B1959 PUSH1 0x8A SHL PUSH1 0x44 DUP3 ADD MSTORE PUSH1 0x64 SWAP1 REVERT JUMPDEST ADD REVERT JUMPDEST PUSH2 0x510 SWAP1 DUP7 RETURNDATASIZE DUP9 GT PUSH2 0x4B0 JUMPI PUSH2 0x4A0 DUP2 DUP4 PUSH2 0x215 JUMP JUMPDEST POP CODESIZE PUSH2 0x3A6 JUMP INVALID LOG2 PUSH5 0x6970667358 0x22 SLT KECCAK256 MSIZE PUSH14 0xDFAA2C0027B25CF231909DA6D49 0xE4 0x4C MULMOD 0x4F 0xC7 MUL PC ADDMOD 0xC9 0x5D MLOAD ADD 0x29 CALLER PUSH30 0x3B64736F6C63430008140033000000000000000000000000000000000000 "},"methodIdentifiers":{"PREMIUM_BPS()":"e22d7050","depositLiquidity(address,uint256)":"39b41b4a","flashLoanSimple(address,address,uint256,bytes,uint16)":"42b0b77c"}}}}}