{"contracts/GaslessFlashArb.sol":{"GaslessFlashArb":{"abi":[{"inputs":[{"internalType":"address","name":"aavePool_","type":"address"},{"internalType":"address","name":"uniRouter_","type":"address"},{"internalType":"address","name":"sushiRouter_","type":"address"},{"internalType":"address","name":"weth_","type":"address"},{"internalType":"address","name":"usdc_","type":"address"},{"internalType":"address","name":"trustedForwarder_","type":"address"}],"stateMutability":"nonpayable","type":"constructor"},{"inputs":[],"name":"AaveOnly","type":"error"},{"inputs":[],"name":"CannotSweepPrimaryTokens","type":"error"},{"inputs":[],"name":"InsufficientProfit","type":"error"},{"inputs":[],"name":"InvalidAddress","type":"error"},{"inputs":[],"name":"InvalidAsset","type":"error"},{"inputs":[],"name":"InvalidDeadline","type":"error"},{"inputs":[],"name":"InvalidInitiator","type":"error"},{"inputs":[],"name":"InvalidPath","type":"error"},{"inputs":[],"name":"NoPendingOperation","type":"error"},{"inputs":[],"name":"OwnerOnly","type":"error"},{"inputs":[],"name":"SlippageTooHigh","type":"error"},{"inputs":[],"name":"SushiswapSwapFailed","type":"error"},{"inputs":[],"name":"TimelockNotExpired","type":"error"},{"inputs":[],"name":"UniSlippageFail","type":"error"},{"inputs":[],"name":"UniswapSwapFailed","type":"error"},{"inputs":[],"name":"UntrustedForwarder","type":"error"},{"inputs":[],"name":"ZeroAmount","type":"error"},{"anonymous":false,"inputs":[{"indexed":true,"internalType":"address","name":"executor","type":"address"},{"indexed":false,"internalType":"uint256","name":"amount","type":"uint256"},{"indexed":false,"internalType":"uint256","name":"minProfit","type":"uint256"}],"name":"ArbAttempt","type":"event"},{"anonymous":false,"inputs":[{"indexed":true,"internalType":"address","name":"executor","type":"address"},{"indexed":false,"internalType":"string","name":"reason","type":"string"}],"name":"ArbFail","type":"event"},{"anonymous":false,"inputs":[{"indexed":true,"internalType":"address","name":"executor","type":"address"},{"indexed":false,"internalType":"uint256","name":"profit","type":"uint256"}],"name":"ArbSuccess","type":"event"},{"anonymous":false,"inputs":[{"indexed":true,"internalType":"address","name":"forwarder","type":"address"},{"indexed":false,"internalType":"uint256","name":"unlockTime","type":"uint256"}],"name":"ForwarderProposed","type":"event"},{"anonymous":false,"inputs":[{"indexed":true,"internalType":"address","name":"forwarder","type":"address"},{"indexed":false,"internalType":"bool","name":"trusted","type":"bool"}],"name":"ForwarderUpdated","type":"event"},{"anonymous":false,"inputs":[{"indexed":false,"internalType":"uint256","name":"oldPct","type":"uint256"},{"indexed":false,"internalType":"uint256","name":"newPct","type":"uint256"}],"name":"MaxBorrowPctUpdated","type":"event"},{"anonymous":false,"inputs":[{"indexed":false,"internalType":"uint256","name":"oldThreshold","type":"uint256"},{"indexed":false,"internalType":"uint256","name":"newThreshold","type":"uint256"}],"name":"ProfitThresholdUpdated","type":"event"},{"anonymous":false,"inputs":[{"indexed":true,"internalType":"address","name":"token","type":"address"},{"indexed":false,"internalType":"uint256","name":"amount","type":"uint256"}],"name":"TokensSwept","type":"event"},{"anonymous":false,"inputs":[{"indexed":false,"internalType":"uint256","name":"wethAmount","type":"uint256"},{"indexed":false,"internalType":"uint256","name":"usdcAmount","type":"uint256"}],"name":"WithdrawalExecuted","type":"event"},{"anonymous":false,"inputs":[{"indexed":false,"internalType":"uint256","name":"unlockTime","type":"uint256"}],"name":"WithdrawalInitiated","type":"event"},{"inputs":[],"name":"MAX_DEADLINE_OFFSET","outputs":[{"internalType":"uint256","name":"","type":"uint256"}],"stateMutability":"view","type":"function"},{"inputs":[],"name":"MIN_SLIPPAGE_BPS","outputs":[{"internalType":"uint256","name":"","type":"uint256"}],"stateMutability":"view","type":"function"},{"inputs":[],"name":"TIMELOCK_DURATION","outputs":[{"internalType":"uint256","name":"","type":"uint256"}],"stateMutability":"view","type":"function"},{"inputs":[],"name":"aavePool","outputs":[{"internalType":"contract IPool","name":"","type":"address"}],"stateMutability":"view","type":"function"},{"inputs":[],"name":"cancelWithdrawal","outputs":[],"stateMutability":"nonpayable","type":"function"},{"inputs":[{"internalType":"address","name":"forwarder","type":"address"}],"name":"confirmForwarder","outputs":[],"stateMutability":"nonpayable","type":"function"},{"inputs":[{"internalType":"uint256","name":"amount","type":"uint256"},{"internalType":"address[]","name":"pathUni","type":"address[]"},{"internalType":"address[]","name":"pathSushi","type":"address[]"},{"internalType":"uint256","name":"minOutOnUni","type":"uint256"},{"internalType":"uint256","name":"minOutOnSushi","type":"uint256"},{"internalType":"uint256","name":"deadline","type":"uint256"},{"internalType":"uint256","name":"minProfitWei","type":"uint256"}],"name":"executeArb","outputs":[],"stateMutability":"nonpayable","type":"function"},{"inputs":[{"internalType":"address","name":"asset","type":"address"},{"internalType":"uint256","name":"amount","type":"uint256"},{"internalType":"uint256","name":"premium","type":"uint256"},{"internalType":"address","name":"initiator","type":"address"},{"internalType":"bytes","name":"params","type":"bytes"}],"name":"executeOperation","outputs":[{"internalType":"bool","name":"success","type":"bool"}],"stateMutability":"nonpayable","type":"function"},{"inputs":[],"name":"executeWithdrawal","outputs":[],"stateMutability":"nonpayable","type":"function"},{"inputs":[],"name":"initiateWithdrawal","outputs":[],"stateMutability":"nonpayable","type":"function"},{"inputs":[{"internalType":"address","name":"forwarder","type":"address"}],"name":"isTrustedForwarder","outputs":[{"internalType":"bool","name":"trusted","type":"bool"}],"stateMutability":"view","type":"function"},{"inputs":[],"name":"maxBorrowPct","outputs":[{"internalType":"uint256","name":"","type":"uint256"}],"stateMutability":"view","type":"function"},{"inputs":[],"name":"owner","outputs":[{"internalType":"address","name":"","type":"address"}],"stateMutability":"view","type":"function"},{"inputs":[{"internalType":"address","name":"","type":"address"}],"name":"pendingForwarderTime","outputs":[{"internalType":"uint256","name":"","type":"uint256"}],"stateMutability":"view","type":"function"},{"inputs":[],"name":"pendingWithdrawalTime","outputs":[{"internalType":"uint256","name":"","type":"uint256"}],"stateMutability":"view","type":"function"},{"inputs":[],"name":"profitThresholdWei","outputs":[{"internalType":"uint256","name":"","type":"uint256"}],"stateMutability":"view","type":"function"},{"inputs":[{"internalType":"address","name":"forwarder","type":"address"}],"name":"proposeForwarder","outputs":[],"stateMutability":"nonpayable","type":"function"},{"inputs":[{"internalType":"address","name":"forwarder","type":"address"}],"name":"revokeForwarder","outputs":[],"stateMutability":"nonpayable","type":"function"},{"inputs":[{"internalType":"uint256","name":"pct","type":"uint256"}],"name":"setMaxBorrowPct","outputs":[],"stateMutability":"nonpayable","type":"function"},{"inputs":[{"internalType":"uint256","name":"threshold","type":"uint256"}],"name":"setProfitThreshold","outputs":[],"stateMutability":"nonpayable","type":"function"},{"inputs":[],"name":"sushiRouter","outputs":[{"internalType":"contract IUniswapV2Router02","name":"","type":"address"}],"stateMutability":"view","type":"function"},{"inputs":[{"internalType":"address","name":"token","type":"address"}],"name":"sweepTokens","outputs":[],"stateMutability":"nonpayable","type":"function"},{"inputs":[{"internalType":"address","name":"","type":"address"}],"name":"trustedForwarderMap","outputs":[{"internalType":"bool","name":"","type":"bool"}],"stateMutability":"view","type":"function"},{"inputs":[],"name":"uniRouter","outputs":[{"internalType":"contract IUniswapV2Router02","name":"","type":"address"}],"stateMutability":"view","type":"function"},{"inputs":[],"name":"usdc","outputs":[{"internalType":"contract IERC20","name":"","type":"address"}],"stateMutability":"view","type":"function"},{"inputs":[],"name":"weth","outputs":[{"internalType":"contract IERC20","name":"","type":"address"}],"stateMutability":"view","type":"function"}],"evm":{"bytecode":{"linkReferences":{},"object":"610160346200024d57601f6200207238819003918201601f191683019291906001600160401b0384118385101762000252578160c092849260409687528339810103126200024d57620000528162000268565b91620000616020830162000268565b906200006f81840162000268565b936200007e6060850162000268565b946200009b60a0620000936080880162000268565b960162000268565b6001600055608081905260056002556001600160a01b039283169490919085156200023c5783169081156200023c5783169687156200023c5783169586156200023c5783169485156200023c57620000f26200027d565b60a05260c05260e05261010095865261012094855261014093845216600052600360205280600020600160ff198254161790555191611d9b9384620002d7853960805184505060a051848181610159015281816103aa0152818161051701528181610661015281816106f1015281816107a5015281816108020152818161091d01528181610cbf01528181610f2101528181610fa60152818161141501526114cf015260c0518481816105ed01528181610af10152818161104e01526113ba015260e0518481816105a80152611160015251838181610d70015261127e0152518281816101a2015281816103dd0152818161097501528181610e4d0152818161108c015281816111960152818161134201526113e4015251818181610202015281816104c8015281816109c201528181610e920152818161111e0152818161122901526112ae0152f35b845163e6c4247b60e01b8152600490fd5b600080fd5b634e487b7160e01b600052604160045260246000fd5b51906001600160a01b03821682036200024d57565b33600052600360205260ff6040600020541680620002ca575b15620002c6576013193601368111620002b0573560601c90565b634e487b7160e01b600052601160045260246000fd5b3390565b5060143610156200029656fe608080604052600436101561001357600080fd5b600090813560e01c90816319530a82146116c6575080631b11d0ff14610fdd5780632261128014610f835780632882118214610efa578063391e09b914610ec15780633e413bee14610e7c5780633fc8cef314610e375780634623c81e14610e19578063572b6c0514610dda5780635f35f7cc14610dda578063617a216614610dbd5780636cdffb2514610d9f5780636d13582c14610d5a57806372e7610114610c905780637435bf641461089657806376ac6566146108785780637f396470146107d45780638da5cb5b1461078f578063926640e9146106c35780639e0fa5f31461063a5780639ffdaa9c1461061c578063a03e4bc3146105d7578063a0e47bf614610592578063b51d1d4f146104f4578063f5f6d3af1461037c5763fa45aa001461013f57600080fd5b34610379578060031936011261037957610157611d26565b7f0000000000000000000000000000000000000000000000000000000000000000906001600160a01b03908183169082160361036757600454801561035557421061034357826004557f000000000000000000000000000000000000000000000000000000000000000090604051916370a0823160e01b9384845230600485015260209182856024818785165afa948515610338578795610309575b508482816102f8575b505050817f000000000000000000000000000000000000000000000000000000000000000095602460405180968193825230600483015289165afa9283156102ed578693610295575b50907f31d3fb496634645407643eb204dae990bd803a7289718931990377e69fe48ce99483809360409695610284575b5050508351928352820152a180f35b61028d92611ce8565b388281610275565b939250908084813d83116102e6575b6102ae81836117eb565b810103126102e15792519192907f31d3fb496634645407643eb204dae990bd803a7289718931990377e69fe48ce9610245565b600080fd5b503d6102a4565b6040513d88823e3d90fd5b61030192611ce8565b3884826101fc565b9094508281813d8311610331575b61032181836117eb565b810103126102e1575193386101f3565b503d610317565b6040513d89823e3d90fd5b60405163621e25c360e01b8152600490fd5b6040516327ecaf0560e21b8152600490fd5b604051630b2db9b760e31b8152600490fd5b80fd5b5034610379576020806003193601126104f0576103976116e2565b61039f611d26565b6001600160a01b03927f00000000000000000000000000000000000000000000000000000000000000009290918484169085160361036757831692807f00000000000000000000000000000000000000000000000000000000000000001684149081156104c4575b506104b2576040516370a0823160e01b81523060048201528181602481875afa9081156104a757859161047a575b508061043f578480f35b61046b817fdd9a81eb1b5197489c3ccfdab7b542e2e6dbdcf4120324e2688fab56fd23f98b9486611ce8565b604051908152a2388080808480f35b90508181813d83116104a0575b61049181836117eb565b810103126102e1575138610435565b503d610487565b6040513d87823e3d90fd5b604051631df0d30560e01b8152600490fd5b90507f000000000000000000000000000000000000000000000000000000000000000016831438610407565b5080fd5b503461037957806003193601126103795761050d611d26565b6001600160a01b037f00000000000000000000000000000000000000000000000000000000000000008116911603610367576202a300420180421161057e576020817fc73dea2ca371d05325d5eedd6907a5606af779c1ce0548b81e3326715b43364a92600455604051908152a180f35b634e487b7160e01b82526011600452602482fd5b50346103795780600319360112610379576040517f00000000000000000000000000000000000000000000000000000000000000006001600160a01b03168152602090f35b50346103795780600319360112610379576040517f00000000000000000000000000000000000000000000000000000000000000006001600160a01b03168152602090f35b50346103795780600319360112610379576020600454604051908152f35b503461037957602036600319011261037957600435610657611d26565b6001600160a01b037f000000000000000000000000000000000000000000000000000000000000000081169116036103675760407f03cbf8c36e288b67033c11c92d62e72896c7dd8021e7212ed352dacb260383f791600254908060025582519182526020820152a180f35b5034610379576020366003190112610379576106dd6116e2565b6106e5611d26565b6001600160a01b0391907f00000000000000000000000000000000000000000000000000000000000000008316908316036103675716801561077d576202a30042018042116107695760207f29b148a374869d19f7b1ecacbca29ce17d606d205a3b1167c52f7579e174f8dd9183855260058252806040862055604051908152a280f35b634e487b7160e01b83526011600452602483fd5b60405163e6c4247b60e01b8152600490fd5b50346103795780600319360112610379576040517f00000000000000000000000000000000000000000000000000000000000000006001600160a01b03168152602090f35b5034610379576020366003190112610379576107ee6116e2565b6107f6611d26565b6001600160a01b0391907f0000000000000000000000000000000000000000000000000000000000000000831690831603610367571680825260036020526040822060ff19815416905560056020528160408120557f8cc3357993414364e6add1411f4853a44efd6c6a279b45a373ad4376d9ea12626020604051848152a280f35b50346103795780600319360112610379576020600254604051908152f35b50346103795760e03660031901126103795767ffffffffffffffff60248035828111610b9e576108ca90369060040161170c565b604493919335828111610c8c576108e590369060040161170c565b94906002875414610c485760028755338752600360205260ff60408820541615610c3657610911611d26565b6001600160a01b0396907f000000000000000000000000000000000000000000000000000000000000000088169088160361036757600435918215610c245760028510610bd95760028210610bd9578415610c115790879161097285611763565b837f000000000000000000000000000000000000000000000000000000000000000016998a911603610bd957600019868101878111610bc6576109bf6109ba86928a8a61173d565b611763565b817f0000000000000000000000000000000000000000000000000000000000000000169182911603610bd9578315610bfe57846109fb84611763565b1603610bd9578201828111610beb5783610a1a6109ba8c93868661173d565b1603610bd95760a43595428710610bb4576107084201804211610bc6578711610bb4576064358015610ba257608435938415610ba2578c98610aef95610ace88610a62611d26565b1693604051948b86527f73b9f9f6c6b6979937a977813f6a2b878c5e22638462e8c4df75a86dbce78056604060c43597886020820152a2610aba6040519c8d988d60208b015260e060408b01526101008a01916117a7565b90601f1998898984030160608a01526117a7565b93608086015260a085015260c084015260e0830152039081018552846117eb565b7f00000000000000000000000000000000000000000000000000000000000000001690813b15610b9e5783610b5297604051988995869485936310ac2ddf60e21b85523060048601528b850152604484015260a0606484015260a4830190611823565b82608483015203925af18015610b9357610b6f575b836001815580f35b8211610b815750604052388080610b67565b634e487b7160e01b8352604160045282fd5b6040513d86823e3d90fd5b8380fd5b60405163428637bb60e11b8152600490fd5b604051631da7447960e21b8152600490fd5b634e487b7160e01b8c526011600452898cfd5b6040516320db826760e01b8152600490fd5b634e487b7160e01b8b526011600452888bfd5b634e487b7160e01b8c526032600452898cfd5b634e487b7160e01b895260326004528689fd5b604051631f2a200560e01b8152600490fd5b6040516305487a1b60e21b8152600490fd5b60405162461bcd60e51b815260206004820152601f818701527f5265656e7472616e637947756172643a207265656e7472616e742063616c6c006044820152606490fd5b8580fd5b5034610379576020806003193601126104f057610cab6116e2565b610cb3611d26565b6001600160a01b0391907f000000000000000000000000000000000000000000000000000000000000000083169083160361036757169081835260058152604083205415610355578183526005815260408320544210610343577f8cc3357993414364e6add1411f4853a44efd6c6a279b45a373ad4376d9ea126290828452600581528360408120556003815260408420600160ff1982541617905560405160018152a280f35b50346103795780600319360112610379576040517f00000000000000000000000000000000000000000000000000000000000000006001600160a01b03168152602090f35b50346103795780600319360112610379576020600154604051908152f35b503461037957806003193601126103795760206040516107088152f35b50346103795760203660031901126103795760209060ff906040906001600160a01b03610e056116e2565b168152600384522054166040519015158152f35b503461037957806003193601126103795760206040516202a3008152f35b50346103795780600319360112610379576040517f00000000000000000000000000000000000000000000000000000000000000006001600160a01b03168152602090f35b50346103795780600319360112610379576040517f00000000000000000000000000000000000000000000000000000000000000006001600160a01b03168152602090f35b5034610379576020366003190112610379576020906040906001600160a01b03610ee96116e2565b168152600583522054604051908152f35b503461037957602036600319011261037957600435610f17611d26565b6001600160a01b037f000000000000000000000000000000000000000000000000000000000000000081169116036103675760407fe5264eaab8cf63722b22f8fb82de052944a4d0a2f87658ad4ae9ece5a881ce7891600154908060015582519182526020820152a180f35b5034610379578060031936011261037957610f9c611d26565b6001600160a01b037f000000000000000000000000000000000000000000000000000000000000000081169116036103675760045415610355578060045580f35b50346103795760a036600319011261037957610ff76116e2565b6064356001600160a01b03811691908290036116885767ffffffffffffffff908160843511610b9e57366023608435011215610b9e57608435600401358281116116c25760843501906024820193368511610c8c577f00000000000000000000000000000000000000000000000000000000000000006001600160a01b031633036116b057300361169e576001600160a01b037f0000000000000000000000000000000000000000000000000000000000000000811691160361168c5760e0906084359003126116885760446084350135818111610b9e578260246110e092608435010161187b565b9160646084350135918211610b9e5760246110ff92608435010161187b565b6040516370a0823160e01b8152306004820152909190836020826024817f00000000000000000000000000000000000000000000000000000000000000006001600160a01b03165afa91821561153e578192611652575b5090916111e891907f00000000000000000000000000000000000000000000000000000000000000006001600160a01b0316608435602401356111ba81837f00000000000000000000000000000000000000000000000000000000000000006119d9565b836040518096819582946338ed173960e01b845260c46084350135913091608480350135906004870161195b565b03925af1908115610b93578491611638575b5080518015918215611603575b50506115f1576040516370a0823160e01b8152306004820152906020826024817f00000000000000000000000000000000000000000000000000000000000000006001600160a01b03165afa8015610b935784906115bd575b61126a9250611777565b60848035013581106115ab576113019183917f00000000000000000000000000000000000000000000000000000000000000006001600160a01b0316906112d281837f00000000000000000000000000000000000000000000000000000000000000006119d9565b836040518096819582946338ed173960e01b845260c4608435013591309160a46084350135906004870161195b565b03925af19081156115a057829161157e575b508051801591821561155d575b505061154b576040516370a0823160e01b8152306004820152906020826024817f00000000000000000000000000000000000000000000000000000000000000006001600160a01b03165afa91821561153e57819261150a575b506113aa61138c60443560243561179a565b60015490925060843560e40135908082111561150357505b8261179a565b821061146f5761140d91611408827f00000000000000000000000000000000000000000000000000000000000000006001600160a01b03167f00000000000000000000000000000000000000000000000000000000000000006119d9565b611777565b6040519081527f00000000000000000000000000000000000000000000000000000000000000006001600160a01b0316907f2c72fe8180a839c49e14242e7b6171d2faf7cc801e2ac1753a0ec125e789f4bb90602090a2602060405160018152f35b60405160208152601f60208201527f496e73756666696369656e742070726f6669742061667465722073776170730060408201527ff13b663fe84aff22434620574a75dc276bd714815ac2a48ae312b25b080c6374606060018060a01b037f00000000000000000000000000000000000000000000000000000000000000001692a2604051632723fc7560e11b8152600490fd5b90506113a4565b9091506020813d602011611536575b81611526602093836117eb565b810103126104f05751903861137a565b3d9150611519565b50604051903d90823e3d90fd5b6040516388e7772560e01b8152600490fd5b600019820192509082116107695790611575916119c5565b51153880611320565b61159a91503d8084833e61159281836117eb565b8101906118e1565b38611313565b6040513d84823e3d90fd5b60405163609a52f360e01b8152600490fd5b506020823d6020116115e9575b816115d7602093836117eb565b81010312610b9e5761126a9151611260565b3d91506115ca565b604051638d032fe760e01b8152600490fd5b60001982019250908211611624579061161b916119c5565b51153880611207565b634e487b7160e01b85526011600452602485fd5b61164c91503d8086833e61159281836117eb565b386111fa565b91506020823d602011611680575b8161166d602093836117eb565b81010312610379576111e8915191611156565b3d9150611660565b8280fd5b604051636448d6e960e11b8152600490fd5b6040516317fb43e560e31b8152600490fd5b60405163238f27e560e21b8152600490fd5b8480fd5b9050346104f057816003193601126104f0578061251c60209252f35b600435906001600160a01b03821682036102e157565b35906001600160a01b03821682036102e157565b9181601f840112156102e15782359167ffffffffffffffff83116102e1576020808501948460051b0101116102e157565b919081101561174d5760051b0190565b634e487b7160e01b600052603260045260246000fd5b356001600160a01b03811681036102e15790565b9190820391821161178457565b634e487b7160e01b600052601160045260246000fd5b9190820180921161178457565b91908082526020809201929160005b8281106117c4575050505090565b909192938280600192838060a01b036117dc896116f8565b168152019501939291016117b6565b90601f8019910116810190811067ffffffffffffffff82111761180d57604052565b634e487b7160e01b600052604160045260246000fd5b919082519283825260005b84811061184f575050826000602080949584010152601f8019910116010190565b60208183018101518483018201520161182e565b67ffffffffffffffff811161180d5760051b60200190565b81601f820112156102e15780359161189283611863565b926118a060405194856117eb565b808452602092838086019260051b8201019283116102e1578301905b8282106118ca575050505090565b8380916118d6846116f8565b8152019101906118bc565b60209081818403126102e15780519067ffffffffffffffff82116102e157019180601f840112156102e157825161191781611863565b9361192560405195866117eb565b818552838086019260051b8201019283116102e1578301905b82821061194c575050505090565b8151815290830190830161193e565b9291909594939560a084019084526020918285015260a0604085015282518091528160c0850193019160005b8281106119a85750505050906080919460018060a01b031660608201520152565b83516001600160a01b031685529381019392810192600101611987565b805182101561174d5760209160051b010190565b60405163095ea7b360e01b602082018181526001600160a01b038516602484015260448084019690965294825294939092611a156064856117eb565b83516000926001600160a01b039291858416918591829182855af190611a39611c0b565b82611ac9575b5081611abe575b5015611a56575b50505050509050565b60405196602088015216602486015280604486015260448552608085019085821067ffffffffffffffff831117611aaa5750611a9f9394611a9a9160405282611b13565b611b13565b803880808080611a4d565b634e487b7160e01b81526041600452602490fd5b90503b151538611a46565b80519192508115918215611ae1575b50509038611a3f565b611af49250602080918301019101611afb565b3880611ad8565b908160209103126102e1575180151581036102e15790565b60408051908101916001600160a01b031667ffffffffffffffff83118284101761180d57611b83926040526000806020958685527f5361666545524332303a206c6f772d6c6576656c2063616c6c206661696c656487860152868151910182855af1611b7d611c0b565b91611c4b565b805190828215928315611bf3575b50505015611b9c5750565b6084906040519062461bcd60e51b82526004820152602a60248201527f5361666545524332303a204552433230206f7065726174696f6e20646964206e6044820152691bdd081cdd58d8d9595960b21b6064820152fd5b611c039350820181019101611afb565b388281611b91565b3d15611c46573d9067ffffffffffffffff821161180d5760405191611c3a601f8201601f1916602001846117eb565b82523d6000602084013e565b606090565b91929015611cad5750815115611c5f575090565b3b15611c685790565b60405162461bcd60e51b815260206004820152601d60248201527f416464726573733a2063616c6c20746f206e6f6e2d636f6e74726163740000006044820152606490fd5b825190915015611cc05750805190602001fd5b60405162461bcd60e51b815260206004820152908190611ce4906024830190611823565b0390fd5b60405163a9059cbb60e01b60208201526001600160a01b03929092166024830152604480830193909352918152611d2491611a9a6064836117eb565b565b33600052600360205260ff6040600020541680611d5a575b15611d56576013193601368111611784573560601c90565b3390565b506014361015611d3e56fea2646970667358221220d6990412720013febfc298fa206c041207f8ae9943b3a929499fc2217efaacd764736f6c63430008140033","opcodes":"PUSH2 0x160 CALLVALUE PUSH3 0x24D JUMPI PUSH1 0x1F PUSH3 0x2072 CODESIZE DUP2 SWAP1 SUB SWAP2 DUP3 ADD PUSH1 0x1F NOT AND DUP4 ADD SWAP3 SWAP2 SWAP1 PUSH1 0x1 PUSH1 0x1 PUSH1 0x40 SHL SUB DUP5 GT DUP4 DUP6 LT OR PUSH3 0x252 JUMPI DUP2 PUSH1 0xC0 SWAP3 DUP5 SWAP3 PUSH1 0x40 SWAP7 DUP8 MSTORE DUP4 CODECOPY DUP2 ADD SUB SLT PUSH3 0x24D JUMPI PUSH3 0x52 DUP2 PUSH3 0x268 JUMP JUMPDEST SWAP2 PUSH3 0x61 PUSH1 0x20 DUP4 ADD PUSH3 0x268 JUMP JUMPDEST SWAP1 PUSH3 0x6F DUP2 DUP5 ADD PUSH3 0x268 JUMP JUMPDEST SWAP4 PUSH3 0x7E PUSH1 0x60 DUP6 ADD PUSH3 0x268 JUMP JUMPDEST SWAP5 PUSH3 0x9B PUSH1 0xA0 PUSH3 0x93 PUSH1 0x80 DUP9 ADD PUSH3 0x268 JUMP JUMPDEST SWAP7 ADD PUSH3 0x268 JUMP JUMPDEST PUSH1 0x1 PUSH1 0x0 SSTORE PUSH1 0x80 DUP2 SWAP1 MSTORE PUSH1 0x5 PUSH1 0x2 SSTORE PUSH1 0x1 PUSH1 0x1 PUSH1 0xA0 SHL SUB SWAP3 DUP4 AND SWAP5 SWAP1 SWAP2 SWAP1 DUP6 ISZERO PUSH3 0x23C JUMPI DUP4 AND SWAP1 DUP2 ISZERO PUSH3 0x23C JUMPI DUP4 AND SWAP7 DUP8 ISZERO PUSH3 0x23C JUMPI DUP4 AND SWAP6 DUP7 ISZERO PUSH3 0x23C JUMPI DUP4 AND SWAP5 DUP6 ISZERO PUSH3 0x23C JUMPI PUSH3 0xF2 PUSH3 0x27D JUMP JUMPDEST PUSH1 0xA0 MSTORE PUSH1 0xC0 MSTORE PUSH1 0xE0 MSTORE PUSH2 0x100 SWAP6 DUP7 MSTORE PUSH2 0x120 SWAP5 DUP6 MSTORE PUSH2 0x140 SWAP4 DUP5 MSTORE AND PUSH1 0x0 MSTORE PUSH1 0x3 PUSH1 0x20 MSTORE DUP1 PUSH1 0x0 KECCAK256 PUSH1 0x1 PUSH1 0xFF NOT DUP3 SLOAD AND OR SWAP1 SSTORE MLOAD SWAP2 PUSH2 0x1D9B SWAP4 DUP5 PUSH3 0x2D7 DUP6 CODECOPY PUSH1 0x80 MLOAD DUP5 POP POP PUSH1 0xA0 MLOAD DUP5 DUP2 DUP2 PUSH2 0x159 ADD MSTORE DUP2 DUP2 PUSH2 0x3AA ADD MSTORE DUP2 DUP2 PUSH2 0x517 ADD MSTORE DUP2 DUP2 PUSH2 0x661 ADD MSTORE DUP2 DUP2 PUSH2 0x6F1 ADD MSTORE DUP2 DUP2 PUSH2 0x7A5 ADD MSTORE DUP2 DUP2 PUSH2 0x802 ADD MSTORE DUP2 DUP2 PUSH2 0x91D ADD MSTORE DUP2 DUP2 PUSH2 0xCBF ADD MSTORE DUP2 DUP2 PUSH2 0xF21 ADD MSTORE DUP2 DUP2 PUSH2 0xFA6 ADD MSTORE DUP2 DUP2 PUSH2 0x1415 ADD MSTORE PUSH2 0x14CF ADD MSTORE PUSH1 0xC0 MLOAD DUP5 DUP2 DUP2 PUSH2 0x5ED ADD MSTORE DUP2 DUP2 PUSH2 0xAF1 ADD MSTORE DUP2 DUP2 PUSH2 0x104E ADD MSTORE PUSH2 0x13BA ADD MSTORE PUSH1 0xE0 MLOAD DUP5 DUP2 DUP2 PUSH2 0x5A8 ADD MSTORE PUSH2 0x1160 ADD MSTORE MLOAD DUP4 DUP2 DUP2 PUSH2 0xD70 ADD MSTORE PUSH2 0x127E ADD MSTORE MLOAD DUP3 DUP2 DUP2 PUSH2 0x1A2 ADD MSTORE DUP2 DUP2 PUSH2 0x3DD ADD MSTORE DUP2 DUP2 PUSH2 0x975 ADD MSTORE DUP2 DUP2 PUSH2 0xE4D ADD MSTORE DUP2 DUP2 PUSH2 0x108C ADD MSTORE DUP2 DUP2 PUSH2 0x1196 ADD MSTORE DUP2 DUP2 PUSH2 0x1342 ADD MSTORE PUSH2 0x13E4 ADD MSTORE MLOAD DUP2 DUP2 DUP2 PUSH2 0x202 ADD MSTORE DUP2 DUP2 PUSH2 0x4C8 ADD MSTORE DUP2 DUP2 PUSH2 0x9C2 ADD MSTORE DUP2 DUP2 PUSH2 0xE92 ADD MSTORE DUP2 DUP2 PUSH2 0x111E ADD MSTORE DUP2 DUP2 PUSH2 0x1229 ADD MSTORE PUSH2 0x12AE ADD MSTORE RETURN JUMPDEST DUP5 MLOAD PUSH4 0xE6C4247B PUSH1 0xE0 SHL DUP2 MSTORE PUSH1 0x4 SWAP1 REVERT JUMPDEST PUSH1 0x0 DUP1 REVERT JUMPDEST PUSH4 0x4E487B71 PUSH1 0xE0 SHL PUSH1 0x0 MSTORE PUSH1 0x41 PUSH1 0x4 MSTORE PUSH1 0x24 PUSH1 0x0 REVERT JUMPDEST MLOAD SWAP1 PUSH1 0x1 PUSH1 0x1 PUSH1 0xA0 SHL SUB DUP3 AND DUP3 SUB PUSH3 0x24D JUMPI JUMP JUMPDEST CALLER PUSH1 0x0 MSTORE PUSH1 0x3 PUSH1 0x20 MSTORE PUSH1 0xFF PUSH1 0x40 PUSH1 0x0 KECCAK256 SLOAD AND DUP1 PUSH3 0x2CA JUMPI JUMPDEST ISZERO PUSH3 0x2C6 JUMPI PUSH1 0x13 NOT CALLDATASIZE ADD CALLDATASIZE DUP2 GT PUSH3 0x2B0 JUMPI CALLDATALOAD PUSH1 0x60 SHR SWAP1 JUMP JUMPDEST PUSH4 0x4E487B71 PUSH1 0xE0 SHL PUSH1 0x0 MSTORE PUSH1 0x11 PUSH1 0x4 MSTORE PUSH1 0x24 PUSH1 0x0 REVERT JUMPDEST CALLER SWAP1 JUMP JUMPDEST POP PUSH1 0x14 CALLDATASIZE LT ISZERO PUSH3 0x296 JUMP INVALID PUSH1 0x80 DUP1 PUSH1 0x40 MSTORE PUSH1 0x4 CALLDATASIZE LT ISZERO PUSH2 0x13 JUMPI PUSH1 0x0 DUP1 REVERT JUMPDEST PUSH1 0x0 SWAP1 DUP2 CALLDATALOAD PUSH1 0xE0 SHR SWAP1 DUP2 PUSH4 0x19530A82 EQ PUSH2 0x16C6 JUMPI POP DUP1 PUSH4 0x1B11D0FF EQ PUSH2 0xFDD JUMPI DUP1 PUSH4 0x22611280 EQ PUSH2 0xF83 JUMPI DUP1 PUSH4 0x28821182 EQ PUSH2 0xEFA JUMPI DUP1 PUSH4 0x391E09B9 EQ PUSH2 0xEC1 JUMPI DUP1 PUSH4 0x3E413BEE EQ PUSH2 0xE7C JUMPI DUP1 PUSH4 0x3FC8CEF3 EQ PUSH2 0xE37 JUMPI DUP1 PUSH4 0x4623C81E EQ PUSH2 0xE19 JUMPI DUP1 PUSH4 0x572B6C05 EQ PUSH2 0xDDA JUMPI DUP1 PUSH4 0x5F35F7CC EQ PUSH2 0xDDA JUMPI DUP1 PUSH4 0x617A2166 EQ PUSH2 0xDBD JUMPI DUP1 PUSH4 0x6CDFFB25 EQ PUSH2 0xD9F JUMPI DUP1 PUSH4 0x6D13582C EQ PUSH2 0xD5A JUMPI DUP1 PUSH4 0x72E76101 EQ PUSH2 0xC90 JUMPI DUP1 PUSH4 0x7435BF64 EQ PUSH2 0x896 JUMPI DUP1 PUSH4 0x76AC6566 EQ PUSH2 0x878 JUMPI DUP1 PUSH4 0x7F396470 EQ PUSH2 0x7D4 JUMPI DUP1 PUSH4 0x8DA5CB5B EQ PUSH2 0x78F JUMPI DUP1 PUSH4 0x926640E9 EQ PUSH2 0x6C3 JUMPI DUP1 PUSH4 0x9E0FA5F3 EQ PUSH2 0x63A JUMPI DUP1 PUSH4 0x9FFDAA9C EQ PUSH2 0x61C JUMPI DUP1 PUSH4 0xA03E4BC3 EQ PUSH2 0x5D7 JUMPI DUP1 PUSH4 0xA0E47BF6 EQ PUSH2 0x592 JUMPI DUP1 PUSH4 0xB51D1D4F EQ PUSH2 0x4F4 JUMPI DUP1 PUSH4 0xF5F6D3AF EQ PUSH2 0x37C JUMPI PUSH4 0xFA45AA00 EQ PUSH2 0x13F JUMPI PUSH1 0x0 DUP1 REVERT JUMPDEST CALLVALUE PUSH2 0x379 JUMPI DUP1 PUSH1 0x3 NOT CALLDATASIZE ADD SLT PUSH2 0x379 JUMPI PUSH2 0x157 PUSH2 0x1D26 JUMP JUMPDEST PUSH32 0x0 SWAP1 PUSH1 0x1 PUSH1 0x1 PUSH1 0xA0 SHL SUB SWAP1 DUP2 DUP4 AND SWAP1 DUP3 AND SUB PUSH2 0x367 JUMPI PUSH1 0x4 SLOAD DUP1 ISZERO PUSH2 0x355 JUMPI TIMESTAMP LT PUSH2 0x343 JUMPI DUP3 PUSH1 0x4 SSTORE PUSH32 0x0 SWAP1 PUSH1 0x40 MLOAD SWAP2 PUSH4 0x70A08231 PUSH1 0xE0 SHL SWAP4 DUP5 DUP5 MSTORE ADDRESS PUSH1 0x4 DUP6 ADD MSTORE PUSH1 0x20 SWAP2 DUP3 DUP6 PUSH1 0x24 DUP2 DUP8 DUP6 AND GAS STATICCALL SWAP5 DUP6 ISZERO PUSH2 0x338 JUMPI DUP8 SWAP6 PUSH2 0x309 JUMPI JUMPDEST POP DUP5 DUP3 DUP2 PUSH2 0x2F8 JUMPI JUMPDEST POP POP POP DUP2 PUSH32 0x0 SWAP6 PUSH1 0x24 PUSH1 0x40 MLOAD DUP1 SWAP7 DUP2 SWAP4 DUP3 MSTORE ADDRESS PUSH1 0x4 DUP4 ADD MSTORE DUP10 AND GAS STATICCALL SWAP3 DUP4 ISZERO PUSH2 0x2ED JUMPI DUP7 SWAP4 PUSH2 0x295 JUMPI JUMPDEST POP SWAP1 PUSH32 0x31D3FB496634645407643EB204DAE990BD803A7289718931990377E69FE48CE9 SWAP5 DUP4 DUP1 SWAP4 PUSH1 0x40 SWAP7 SWAP6 PUSH2 0x284 JUMPI JUMPDEST POP POP POP DUP4 MLOAD SWAP3 DUP4 MSTORE DUP3 ADD MSTORE LOG1 DUP1 RETURN JUMPDEST PUSH2 0x28D SWAP3 PUSH2 0x1CE8 JUMP JUMPDEST CODESIZE DUP3 DUP2 PUSH2 0x275 JUMP JUMPDEST SWAP4 SWAP3 POP SWAP1 DUP1 DUP5 DUP2 RETURNDATASIZE DUP4 GT PUSH2 0x2E6 JUMPI JUMPDEST PUSH2 0x2AE DUP2 DUP4 PUSH2 0x17EB JUMP JUMPDEST DUP2 ADD SUB SLT PUSH2 0x2E1 JUMPI SWAP3 MLOAD SWAP2 SWAP3 SWAP1 PUSH32 0x31D3FB496634645407643EB204DAE990BD803A7289718931990377E69FE48CE9 PUSH2 0x245 JUMP JUMPDEST PUSH1 0x0 DUP1 REVERT JUMPDEST POP RETURNDATASIZE PUSH2 0x2A4 JUMP JUMPDEST PUSH1 0x40 MLOAD RETURNDATASIZE DUP9 DUP3 RETURNDATACOPY RETURNDATASIZE SWAP1 REVERT JUMPDEST PUSH2 0x301 SWAP3 PUSH2 0x1CE8 JUMP JUMPDEST CODESIZE DUP5 DUP3 PUSH2 0x1FC JUMP JUMPDEST SWAP1 SWAP5 POP DUP3 DUP2 DUP2 RETURNDATASIZE DUP4 GT PUSH2 0x331 JUMPI JUMPDEST PUSH2 0x321 DUP2 DUP4 PUSH2 0x17EB JUMP JUMPDEST DUP2 ADD SUB SLT PUSH2 0x2E1 JUMPI MLOAD SWAP4 CODESIZE PUSH2 0x1F3 JUMP JUMPDEST POP RETURNDATASIZE PUSH2 0x317 JUMP JUMPDEST PUSH1 0x40 MLOAD RETURNDATASIZE DUP10 DUP3 RETURNDATACOPY RETURNDATASIZE SWAP1 REVERT JUMPDEST PUSH1 0x40 MLOAD PUSH4 0x621E25C3 PUSH1 0xE0 SHL DUP2 MSTORE PUSH1 0x4 SWAP1 REVERT JUMPDEST PUSH1 0x40 MLOAD PUSH4 0x27ECAF05 PUSH1 0xE2 SHL DUP2 MSTORE PUSH1 0x4 SWAP1 REVERT JUMPDEST PUSH1 0x40 MLOAD PUSH4 0xB2DB9B7 PUSH1 0xE3 SHL DUP2 MSTORE PUSH1 0x4 SWAP1 REVERT JUMPDEST DUP1 REVERT JUMPDEST POP CALLVALUE PUSH2 0x379 JUMPI PUSH1 0x20 DUP1 PUSH1 0x3 NOT CALLDATASIZE ADD SLT PUSH2 0x4F0 JUMPI PUSH2 0x397 PUSH2 0x16E2 JUMP JUMPDEST PUSH2 0x39F PUSH2 0x1D26 JUMP JUMPDEST PUSH1 0x1 PUSH1 0x1 PUSH1 0xA0 SHL SUB SWAP3 PUSH32 0x0 SWAP3 SWAP1 SWAP2 DUP5 DUP5 AND SWAP1 DUP6 AND SUB PUSH2 0x367 JUMPI DUP4 AND SWAP3 DUP1 PUSH32 0x0 AND DUP5 EQ SWAP1 DUP2 ISZERO PUSH2 0x4C4 JUMPI JUMPDEST POP PUSH2 0x4B2 JUMPI PUSH1 0x40 MLOAD PUSH4 0x70A08231 PUSH1 0xE0 SHL DUP2 MSTORE ADDRESS PUSH1 0x4 DUP3 ADD MSTORE DUP2 DUP2 PUSH1 0x24 DUP2 DUP8 GAS STATICCALL SWAP1 DUP2 ISZERO PUSH2 0x4A7 JUMPI DUP6 SWAP2 PUSH2 0x47A JUMPI JUMPDEST POP DUP1 PUSH2 0x43F JUMPI DUP5 DUP1 RETURN JUMPDEST PUSH2 0x46B DUP2 PUSH32 0xDD9A81EB1B5197489C3CCFDAB7B542E2E6DBDCF4120324E2688FAB56FD23F98B SWAP5 DUP7 PUSH2 0x1CE8 JUMP JUMPDEST PUSH1 0x40 MLOAD SWAP1 DUP2 MSTORE LOG2 CODESIZE DUP1 DUP1 DUP1 DUP5 DUP1 RETURN JUMPDEST SWAP1 POP DUP2 DUP2 DUP2 RETURNDATASIZE DUP4 GT PUSH2 0x4A0 JUMPI JUMPDEST PUSH2 0x491 DUP2 DUP4 PUSH2 0x17EB JUMP JUMPDEST DUP2 ADD SUB SLT PUSH2 0x2E1 JUMPI MLOAD CODESIZE PUSH2 0x435 JUMP JUMPDEST POP RETURNDATASIZE PUSH2 0x487 JUMP JUMPDEST PUSH1 0x40 MLOAD RETURNDATASIZE DUP8 DUP3 RETURNDATACOPY RETURNDATASIZE SWAP1 REVERT JUMPDEST PUSH1 0x40 MLOAD PUSH4 0x1DF0D305 PUSH1 0xE0 SHL DUP2 MSTORE PUSH1 0x4 SWAP1 REVERT JUMPDEST SWAP1 POP PUSH32 0x0 AND DUP4 EQ CODESIZE PUSH2 0x407 JUMP JUMPDEST POP DUP1 REVERT JUMPDEST POP CALLVALUE PUSH2 0x379 JUMPI DUP1 PUSH1 0x3 NOT CALLDATASIZE ADD SLT PUSH2 0x379 JUMPI PUSH2 0x50D PUSH2 0x1D26 JUMP JUMPDEST PUSH1 0x1 PUSH1 0x1 PUSH1 0xA0 SHL SUB PUSH32 0x0 DUP2 AND SWAP2 AND SUB PUSH2 0x367 JUMPI PUSH3 0x2A300 TIMESTAMP ADD DUP1 TIMESTAMP GT PUSH2 0x57E JUMPI PUSH1 0x20 DUP2 PUSH32 0xC73DEA2CA371D05325D5EEDD6907A5606AF779C1CE0548B81E3326715B43364A SWAP3 PUSH1 0x4 SSTORE PUSH1 0x40 MLOAD SWAP1 DUP2 MSTORE LOG1 DUP1 RETURN JUMPDEST PUSH4 0x4E487B71 PUSH1 0xE0 SHL DUP3 MSTORE PUSH1 0x11 PUSH1 0x4 MSTORE PUSH1 0x24 DUP3 REVERT JUMPDEST POP CALLVALUE PUSH2 0x379 JUMPI DUP1 PUSH1 0x3 NOT CALLDATASIZE ADD SLT PUSH2 0x379 JUMPI PUSH1 0x40 MLOAD PUSH32 0x0 PUSH1 0x1 PUSH1 0x1 PUSH1 0xA0 SHL SUB AND DUP2 MSTORE PUSH1 0x20 SWAP1 RETURN JUMPDEST POP CALLVALUE PUSH2 0x379 JUMPI DUP1 PUSH1 0x3 NOT CALLDATASIZE ADD SLT PUSH2 0x379 JUMPI PUSH1 0x40 MLOAD PUSH32 0x0 PUSH1 0x1 PUSH1 0x1 PUSH1 0xA0 SHL SUB AND DUP2 MSTORE PUSH1 0x20 SWAP1 RETURN JUMPDEST POP CALLVALUE PUSH2 0x379 JUMPI DUP1 PUSH1 0x3 NOT CALLDATASIZE ADD SLT PUSH2 0x379 JUMPI PUSH1 0x20 PUSH1 0x4 SLOAD PUSH1 0x40 MLOAD SWAP1 DUP2 MSTORE RETURN JUMPDEST POP CALLVALUE PUSH2 0x379 JUMPI PUSH1 0x20 CALLDATASIZE PUSH1 0x3 NOT ADD SLT PUSH2 0x379 JUMPI PUSH1 0x4 CALLDATALOAD PUSH2 0x657 PUSH2 0x1D26 JUMP JUMPDEST PUSH1 0x1 PUSH1 0x1 PUSH1 0xA0 SHL SUB PUSH32 0x0 DUP2 AND SWAP2 AND SUB PUSH2 0x367 JUMPI PUSH1 0x40 PUSH32 0x3CBF8C36E288B67033C11C92D62E72896C7DD8021E7212ED352DACB260383F7 SWAP2 PUSH1 0x2 SLOAD SWAP1 DUP1 PUSH1 0x2 SSTORE DUP3 MLOAD SWAP2 DUP3 MSTORE PUSH1 0x20 DUP3 ADD MSTORE LOG1 DUP1 RETURN JUMPDEST POP CALLVALUE PUSH2 0x379 JUMPI PUSH1 0x20 CALLDATASIZE PUSH1 0x3 NOT ADD SLT PUSH2 0x379 JUMPI PUSH2 0x6DD PUSH2 0x16E2 JUMP JUMPDEST PUSH2 0x6E5 PUSH2 0x1D26 JUMP JUMPDEST PUSH1 0x1 PUSH1 0x1 PUSH1 0xA0 SHL SUB SWAP2 SWAP1 PUSH32 0x0 DUP4 AND SWAP1 DUP4 AND SUB PUSH2 0x367 JUMPI AND DUP1 ISZERO PUSH2 0x77D JUMPI PUSH3 0x2A300 TIMESTAMP ADD DUP1 TIMESTAMP GT PUSH2 0x769 JUMPI PUSH1 0x20 PUSH32 0x29B148A374869D19F7B1ECACBCA29CE17D606D205A3B1167C52F7579E174F8DD SWAP2 DUP4 DUP6 MSTORE PUSH1 0x5 DUP3 MSTORE DUP1 PUSH1 0x40 DUP7 KECCAK256 SSTORE PUSH1 0x40 MLOAD SWAP1 DUP2 MSTORE LOG2 DUP1 RETURN JUMPDEST PUSH4 0x4E487B71 PUSH1 0xE0 SHL DUP4 MSTORE PUSH1 0x11 PUSH1 0x4 MSTORE PUSH1 0x24 DUP4 REVERT JUMPDEST PUSH1 0x40 MLOAD PUSH4 0xE6C4247B PUSH1 0xE0 SHL DUP2 MSTORE PUSH1 0x4 SWAP1 REVERT JUMPDEST POP CALLVALUE PUSH2 0x379 JUMPI DUP1 PUSH1 0x3 NOT CALLDATASIZE ADD SLT PUSH2 0x379 JUMPI PUSH1 0x40 MLOAD PUSH32 0x0 PUSH1 0x1 PUSH1 0x1 PUSH1 0xA0 SHL SUB AND DUP2 MSTORE PUSH1 0x20 SWAP1 RETURN JUMPDEST POP CALLVALUE PUSH2 0x379 JUMPI PUSH1 0x20 CALLDATASIZE PUSH1 0x3 NOT ADD SLT PUSH2 0x379 JUMPI PUSH2 0x7EE PUSH2 0x16E2 JUMP JUMPDEST PUSH2 0x7F6 PUSH2 0x1D26 JUMP JUMPDEST PUSH1 0x1 PUSH1 0x1 PUSH1 0xA0 SHL SUB SWAP2 SWAP1 PUSH32 0x0 DUP4 AND SWAP1 DUP4 AND SUB PUSH2 0x367 JUMPI AND DUP1 DUP3 MSTORE PUSH1 0x3 PUSH1 0x20 MSTORE PUSH1 0x40 DUP3 KECCAK256 PUSH1 0xFF NOT DUP2 SLOAD AND SWAP1 SSTORE PUSH1 0x5 PUSH1 0x20 MSTORE DUP2 PUSH1 0x40 DUP2 KECCAK256 SSTORE PUSH32 0x8CC3357993414364E6ADD1411F4853A44EFD6C6A279B45A373AD4376D9EA1262 PUSH1 0x20 PUSH1 0x40 MLOAD DUP5 DUP2 MSTORE LOG2 DUP1 RETURN JUMPDEST POP CALLVALUE PUSH2 0x379 JUMPI DUP1 PUSH1 0x3 NOT CALLDATASIZE ADD SLT PUSH2 0x379 JUMPI PUSH1 0x20 PUSH1 0x2 SLOAD PUSH1 0x40 MLOAD SWAP1 DUP2 MSTORE RETURN JUMPDEST POP CALLVALUE PUSH2 0x379 JUMPI PUSH1 0xE0 CALLDATASIZE PUSH1 0x3 NOT ADD SLT PUSH2 0x379 JUMPI PUSH8 0xFFFFFFFFFFFFFFFF PUSH1 0x24 DUP1 CALLDATALOAD DUP3 DUP2 GT PUSH2 0xB9E JUMPI PUSH2 0x8CA SWAP1 CALLDATASIZE SWAP1 PUSH1 0x4 ADD PUSH2 0x170C JUMP JUMPDEST PUSH1 0x44 SWAP4 SWAP2 SWAP4 CALLDATALOAD DUP3 DUP2 GT PUSH2 0xC8C JUMPI PUSH2 0x8E5 SWAP1 CALLDATASIZE SWAP1 PUSH1 0x4 ADD PUSH2 0x170C JUMP JUMPDEST SWAP5 SWAP1 PUSH1 0x2 DUP8 SLOAD EQ PUSH2 0xC48 JUMPI PUSH1 0x2 DUP8 SSTORE CALLER DUP8 MSTORE PUSH1 0x3 PUSH1 0x20 MSTORE PUSH1 0xFF PUSH1 0x40 DUP9 KECCAK256 SLOAD AND ISZERO PUSH2 0xC36 JUMPI PUSH2 0x911 PUSH2 0x1D26 JUMP JUMPDEST PUSH1 0x1 PUSH1 0x1 PUSH1 0xA0 SHL SUB SWAP7 SWAP1 PUSH32 0x0 DUP9 AND SWAP1 DUP9 AND SUB PUSH2 0x367 JUMPI PUSH1 0x4 CALLDATALOAD SWAP2 DUP3 ISZERO PUSH2 0xC24 JUMPI PUSH1 0x2 DUP6 LT PUSH2 0xBD9 JUMPI PUSH1 0x2 DUP3 LT PUSH2 0xBD9 JUMPI DUP5 ISZERO PUSH2 0xC11 JUMPI SWAP1 DUP8 SWAP2 PUSH2 0x972 DUP6 PUSH2 0x1763 JUMP JUMPDEST DUP4 PUSH32 0x0 AND SWAP10 DUP11 SWAP2 AND SUB PUSH2 0xBD9 JUMPI PUSH1 0x0 NOT DUP7 DUP2 ADD DUP8 DUP2 GT PUSH2 0xBC6 JUMPI PUSH2 0x9BF PUSH2 0x9BA DUP7 SWAP3 DUP11 DUP11 PUSH2 0x173D JUMP JUMPDEST PUSH2 0x1763 JUMP JUMPDEST DUP2 PUSH32 0x0 AND SWAP2 DUP3 SWAP2 AND SUB PUSH2 0xBD9 JUMPI DUP4 ISZERO PUSH2 0xBFE JUMPI DUP5 PUSH2 0x9FB DUP5 PUSH2 0x1763 JUMP JUMPDEST AND SUB PUSH2 0xBD9 JUMPI DUP3 ADD DUP3 DUP2 GT PUSH2 0xBEB JUMPI DUP4 PUSH2 0xA1A PUSH2 0x9BA DUP13 SWAP4 DUP7 DUP7 PUSH2 0x173D JUMP JUMPDEST AND SUB PUSH2 0xBD9 JUMPI PUSH1 0xA4 CALLDATALOAD SWAP6 TIMESTAMP DUP8 LT PUSH2 0xBB4 JUMPI PUSH2 0x708 TIMESTAMP ADD DUP1 TIMESTAMP GT PUSH2 0xBC6 JUMPI DUP8 GT PUSH2 0xBB4 JUMPI PUSH1 0x64 CALLDATALOAD DUP1 ISZERO PUSH2 0xBA2 JUMPI PUSH1 0x84 CALLDATALOAD SWAP4 DUP5 ISZERO PUSH2 0xBA2 JUMPI DUP13 SWAP9 PUSH2 0xAEF SWAP6 PUSH2 0xACE DUP9 PUSH2 0xA62 PUSH2 0x1D26 JUMP JUMPDEST AND SWAP4 PUSH1 0x40 MLOAD SWAP5 DUP12 DUP7 MSTORE PUSH32 0x73B9F9F6C6B6979937A977813F6A2B878C5E22638462E8C4DF75A86DBCE78056 PUSH1 0x40 PUSH1 0xC4 CALLDATALOAD SWAP8 DUP9 PUSH1 0x20 DUP3 ADD MSTORE LOG2 PUSH2 0xABA PUSH1 0x40 MLOAD SWAP13 DUP14 SWAP9 DUP14 PUSH1 0x20 DUP12 ADD MSTORE PUSH1 0xE0 PUSH1 0x40 DUP12 ADD MSTORE PUSH2 0x100 DUP11 ADD SWAP2 PUSH2 0x17A7 JUMP JUMPDEST SWAP1 PUSH1 0x1F NOT SWAP9 DUP10 DUP10 DUP5 SUB ADD PUSH1 0x60 DUP11 ADD MSTORE PUSH2 0x17A7 JUMP JUMPDEST SWAP4 PUSH1 0x80 DUP7 ADD MSTORE PUSH1 0xA0 DUP6 ADD MSTORE PUSH1 0xC0 DUP5 ADD MSTORE PUSH1 0xE0 DUP4 ADD MSTORE SUB SWAP1 DUP2 ADD DUP6 MSTORE DUP5 PUSH2 0x17EB JUMP JUMPDEST PUSH32 0x0 AND SWAP1 DUP2 EXTCODESIZE ISZERO PUSH2 0xB9E JUMPI DUP4 PUSH2 0xB52 SWAP8 PUSH1 0x40 MLOAD SWAP9 DUP10 SWAP6 DUP7 SWAP5 DUP6 SWAP4 PUSH4 0x10AC2DDF PUSH1 0xE2 SHL DUP6 MSTORE ADDRESS PUSH1 0x4 DUP7 ADD MSTORE DUP12 DUP6 ADD MSTORE PUSH1 0x44 DUP5 ADD MSTORE PUSH1 0xA0 PUSH1 0x64 DUP5 ADD MSTORE PUSH1 0xA4 DUP4 ADD SWAP1 PUSH2 0x1823 JUMP JUMPDEST DUP3 PUSH1 0x84 DUP4 ADD MSTORE SUB SWAP3 GAS CALL DUP1 ISZERO PUSH2 0xB93 JUMPI PUSH2 0xB6F JUMPI JUMPDEST DUP4 PUSH1 0x1 DUP2 SSTORE DUP1 RETURN JUMPDEST DUP3 GT PUSH2 0xB81 JUMPI POP PUSH1 0x40 MSTORE CODESIZE DUP1 DUP1 PUSH2 0xB67 JUMP JUMPDEST PUSH4 0x4E487B71 PUSH1 0xE0 SHL DUP4 MSTORE PUSH1 0x41 PUSH1 0x4 MSTORE DUP3 REVERT JUMPDEST PUSH1 0x40 MLOAD RETURNDATASIZE DUP7 DUP3 RETURNDATACOPY RETURNDATASIZE SWAP1 REVERT JUMPDEST DUP4 DUP1 REVERT JUMPDEST PUSH1 0x40 MLOAD PUSH4 0x428637BB PUSH1 0xE1 SHL DUP2 MSTORE PUSH1 0x4 SWAP1 REVERT JUMPDEST PUSH1 0x40 MLOAD PUSH4 0x1DA74479 PUSH1 0xE2 SHL DUP2 MSTORE PUSH1 0x4 SWAP1 REVERT JUMPDEST PUSH4 0x4E487B71 PUSH1 0xE0 SHL DUP13 MSTORE PUSH1 0x11 PUSH1 0x4 MSTORE DUP10 DUP13 REVERT JUMPDEST PUSH1 0x40 MLOAD PUSH4 0x20DB8267 PUSH1 0xE0 SHL DUP2 MSTORE PUSH1 0x4 SWAP1 REVERT JUMPDEST PUSH4 0x4E487B71 PUSH1 0xE0 SHL DUP12 MSTORE PUSH1 0x11 PUSH1 0x4 MSTORE DUP9 DUP12 REVERT JUMPDEST PUSH4 0x4E487B71 PUSH1 0xE0 SHL DUP13 MSTORE PUSH1 0x32 PUSH1 0x4 MSTORE DUP10 DUP13 REVERT JUMPDEST PUSH4 0x4E487B71 PUSH1 0xE0 SHL DUP10 MSTORE PUSH1 0x32 PUSH1 0x4 MSTORE DUP7 DUP10 REVERT JUMPDEST PUSH1 0x40 MLOAD PUSH4 0x1F2A2005 PUSH1 0xE0 SHL DUP2 MSTORE PUSH1 0x4 SWAP1 REVERT JUMPDEST PUSH1 0x40 MLOAD PUSH4 0x5487A1B PUSH1 0xE2 SHL DUP2 MSTORE PUSH1 0x4 SWAP1 REVERT JUMPDEST PUSH1 0x40 MLOAD PUSH3 0x461BCD PUSH1 0xE5 SHL DUP2 MSTORE PUSH1 0x20 PUSH1 0x4 DUP3 ADD MSTORE PUSH1 0x1F DUP2 DUP8 ADD MSTORE PUSH32 0x5265656E7472616E637947756172643A207265656E7472616E742063616C6C00 PUSH1 0x44 DUP3 ADD MSTORE PUSH1 0x64 SWAP1 REVERT JUMPDEST DUP6 DUP1 REVERT JUMPDEST POP CALLVALUE PUSH2 0x379 JUMPI PUSH1 0x20 DUP1 PUSH1 0x3 NOT CALLDATASIZE ADD SLT PUSH2 0x4F0 JUMPI PUSH2 0xCAB PUSH2 0x16E2 JUMP JUMPDEST PUSH2 0xCB3 PUSH2 0x1D26 JUMP JUMPDEST PUSH1 0x1 PUSH1 0x1 PUSH1 0xA0 SHL SUB SWAP2 SWAP1 PUSH32 0x0 DUP4 AND SWAP1 DUP4 AND SUB PUSH2 0x367 JUMPI AND SWAP1 DUP2 DUP4 MSTORE PUSH1 0x5 DUP2 MSTORE PUSH1 0x40 DUP4 KECCAK256 SLOAD ISZERO PUSH2 0x355 JUMPI DUP2 DUP4 MSTORE PUSH1 0x5 DUP2 MSTORE PUSH1 0x40 DUP4 KECCAK256 SLOAD TIMESTAMP LT PUSH2 0x343 JUMPI PUSH32 0x8CC3357993414364E6ADD1411F4853A44EFD6C6A279B45A373AD4376D9EA1262 SWAP1 DUP3 DUP5 MSTORE PUSH1 0x5 DUP2 MSTORE DUP4 PUSH1 0x40 DUP2 KECCAK256 SSTORE PUSH1 0x3 DUP2 MSTORE PUSH1 0x40 DUP5 KECCAK256 PUSH1 0x1 PUSH1 0xFF NOT DUP3 SLOAD AND OR SWAP1 SSTORE PUSH1 0x40 MLOAD PUSH1 0x1 DUP2 MSTORE LOG2 DUP1 RETURN JUMPDEST POP CALLVALUE PUSH2 0x379 JUMPI DUP1 PUSH1 0x3 NOT CALLDATASIZE ADD SLT PUSH2 0x379 JUMPI PUSH1 0x40 MLOAD PUSH32 0x0 PUSH1 0x1 PUSH1 0x1 PUSH1 0xA0 SHL SUB AND DUP2 MSTORE PUSH1 0x20 SWAP1 RETURN JUMPDEST POP CALLVALUE PUSH2 0x379 JUMPI DUP1 PUSH1 0x3 NOT CALLDATASIZE ADD SLT PUSH2 0x379 JUMPI PUSH1 0x20 PUSH1 0x1 SLOAD PUSH1 0x40 MLOAD SWAP1 DUP2 MSTORE RETURN JUMPDEST POP CALLVALUE PUSH2 0x379 JUMPI DUP1 PUSH1 0x3 NOT CALLDATASIZE ADD SLT PUSH2 0x379 JUMPI PUSH1 0x20 PUSH1 0x40 MLOAD PUSH2 0x708 DUP2 MSTORE RETURN JUMPDEST POP CALLVALUE PUSH2 0x379 JUMPI PUSH1 0x20 CALLDATASIZE PUSH1 0x3 NOT ADD SLT PUSH2 0x379 JUMPI PUSH1 0x20 SWAP1 PUSH1 0xFF SWAP1 PUSH1 0x40 SWAP1 PUSH1 0x1 PUSH1 0x1 PUSH1 0xA0 SHL SUB PUSH2 0xE05 PUSH2 0x16E2 JUMP JUMPDEST AND DUP2 MSTORE PUSH1 0x3 DUP5 MSTORE KECCAK256 SLOAD AND PUSH1 0x40 MLOAD SWAP1 ISZERO ISZERO DUP2 MSTORE RETURN JUMPDEST POP CALLVALUE PUSH2 0x379 JUMPI DUP1 PUSH1 0x3 NOT CALLDATASIZE ADD SLT PUSH2 0x379 JUMPI PUSH1 0x20 PUSH1 0x40 MLOAD PUSH3 0x2A300 DUP2 MSTORE RETURN JUMPDEST POP CALLVALUE PUSH2 0x379 JUMPI DUP1 PUSH1 0x3 NOT CALLDATASIZE ADD SLT PUSH2 0x379 JUMPI PUSH1 0x40 MLOAD PUSH32 0x0 PUSH1 0x1 PUSH1 0x1 PUSH1 0xA0 SHL SUB AND DUP2 MSTORE PUSH1 0x20 SWAP1 RETURN JUMPDEST POP CALLVALUE PUSH2 0x379 JUMPI DUP1 PUSH1 0x3 NOT CALLDATASIZE ADD SLT PUSH2 0x379 JUMPI PUSH1 0x40 MLOAD PUSH32 0x0 PUSH1 0x1 PUSH1 0x1 PUSH1 0xA0 SHL SUB AND DUP2 MSTORE PUSH1 0x20 SWAP1 RETURN JUMPDEST POP CALLVALUE PUSH2 0x379 JUMPI PUSH1 0x20 CALLDATASIZE PUSH1 0x3 NOT ADD SLT PUSH2 0x379 JUMPI PUSH1 0x20 SWAP1 PUSH1 0x40 SWAP1 PUSH1 0x1 PUSH1 0x1 PUSH1 0xA0 SHL SUB PUSH2 0xEE9 PUSH2 0x16E2 JUMP JUMPDEST AND DUP2 MSTORE PUSH1 0x5 DUP4 MSTORE KECCAK256 SLOAD PUSH1 0x40 MLOAD SWAP1 DUP2 MSTORE RETURN JUMPDEST POP CALLVALUE PUSH2 0x379 JUMPI PUSH1 0x20 CALLDATASIZE PUSH1 0x3 NOT ADD SLT PUSH2 0x379 JUMPI PUSH1 0x4 CALLDATALOAD PUSH2 0xF17 PUSH2 0x1D26 JUMP JUMPDEST PUSH1 0x1 PUSH1 0x1 PUSH1 0xA0 SHL SUB PUSH32 0x0 DUP2 AND SWAP2 AND SUB PUSH2 0x367 JUMPI PUSH1 0x40 PUSH32 0xE5264EAAB8CF63722B22F8FB82DE052944A4D0A2F87658AD4AE9ECE5A881CE78 SWAP2 PUSH1 0x1 SLOAD SWAP1 DUP1 PUSH1 0x1 SSTORE DUP3 MLOAD SWAP2 DUP3 MSTORE PUSH1 0x20 DUP3 ADD MSTORE LOG1 DUP1 RETURN JUMPDEST POP CALLVALUE PUSH2 0x379 JUMPI DUP1 PUSH1 0x3 NOT CALLDATASIZE ADD SLT PUSH2 0x379 JUMPI PUSH2 0xF9C PUSH2 0x1D26 JUMP JUMPDEST PUSH1 0x1 PUSH1 0x1 PUSH1 0xA0 SHL SUB PUSH32 0x0 DUP2 AND SWAP2 AND SUB PUSH2 0x367 JUMPI PUSH1 0x4 SLOAD ISZERO PUSH2 0x355 JUMPI DUP1 PUSH1 0x4 SSTORE DUP1 RETURN JUMPDEST POP CALLVALUE PUSH2 0x379 JUMPI PUSH1 0xA0 CALLDATASIZE PUSH1 0x3 NOT ADD SLT PUSH2 0x379 JUMPI PUSH2 0xFF7 PUSH2 0x16E2 JUMP JUMPDEST PUSH1 0x64 CALLDATALOAD PUSH1 0x1 PUSH1 0x1 PUSH1 0xA0 SHL SUB DUP2 AND SWAP2 SWAP1 DUP3 SWAP1 SUB PUSH2 0x1688 JUMPI PUSH8 0xFFFFFFFFFFFFFFFF SWAP1 DUP2 PUSH1 0x84 CALLDATALOAD GT PUSH2 0xB9E JUMPI CALLDATASIZE PUSH1 0x23 PUSH1 0x84 CALLDATALOAD ADD SLT ISZERO PUSH2 0xB9E JUMPI PUSH1 0x84 CALLDATALOAD PUSH1 0x4 ADD CALLDATALOAD DUP3 DUP2 GT PUSH2 0x16C2 JUMPI PUSH1 0x84 CALLDATALOAD ADD SWAP1 PUSH1 0x24 DUP3 ADD SWAP4 CALLDATASIZE DUP6 GT PUSH2 0xC8C JUMPI PUSH32 0x0 PUSH1 0x1 PUSH1 0x1 PUSH1 0xA0 SHL SUB AND CALLER SUB PUSH2 0x16B0 JUMPI ADDRESS SUB PUSH2 0x169E JUMPI PUSH1 0x1 PUSH1 0x1 PUSH1 0xA0 SHL SUB PUSH32 0x0 DUP2 AND SWAP2 AND SUB PUSH2 0x168C JUMPI PUSH1 0xE0 SWAP1 PUSH1 0x84 CALLDATALOAD SWAP1 SUB SLT PUSH2 0x1688 JUMPI PUSH1 0x44 PUSH1 0x84 CALLDATALOAD ADD CALLDATALOAD DUP2 DUP2 GT PUSH2 0xB9E JUMPI DUP3 PUSH1 0x24 PUSH2 0x10E0 SWAP3 PUSH1 0x84 CALLDATALOAD ADD ADD PUSH2 0x187B JUMP JUMPDEST SWAP2 PUSH1 0x64 PUSH1 0x84 CALLDATALOAD ADD CALLDATALOAD SWAP2 DUP3 GT PUSH2 0xB9E JUMPI PUSH1 0x24 PUSH2 0x10FF SWAP3 PUSH1 0x84 CALLDATALOAD ADD ADD PUSH2 0x187B JUMP JUMPDEST PUSH1 0x40 MLOAD PUSH4 0x70A08231 PUSH1 0xE0 SHL DUP2 MSTORE ADDRESS PUSH1 0x4 DUP3 ADD MSTORE SWAP1 SWAP2 SWAP1 DUP4 PUSH1 0x20 DUP3 PUSH1 0x24 DUP2 PUSH32 0x0 PUSH1 0x1 PUSH1 0x1 PUSH1 0xA0 SHL SUB AND GAS STATICCALL SWAP2 DUP3 ISZERO PUSH2 0x153E JUMPI DUP2 SWAP3 PUSH2 0x1652 JUMPI JUMPDEST POP SWAP1 SWAP2 PUSH2 0x11E8 SWAP2 SWAP1 PUSH32 0x0 PUSH1 0x1 PUSH1 0x1 PUSH1 0xA0 SHL SUB AND PUSH1 0x84 CALLDATALOAD PUSH1 0x24 ADD CALLDATALOAD PUSH2 0x11BA DUP2 DUP4 PUSH32 0x0 PUSH2 0x19D9 JUMP JUMPDEST DUP4 PUSH1 0x40 MLOAD DUP1 SWAP7 DUP2 SWAP6 DUP3 SWAP5 PUSH4 0x38ED1739 PUSH1 0xE0 SHL DUP5 MSTORE PUSH1 0xC4 PUSH1 0x84 CALLDATALOAD ADD CALLDATALOAD SWAP2 ADDRESS SWAP2 PUSH1 0x84 DUP1 CALLDATALOAD ADD CALLDATALOAD SWAP1 PUSH1 0x4 DUP8 ADD PUSH2 0x195B JUMP JUMPDEST SUB SWAP3 GAS CALL SWAP1 DUP2 ISZERO PUSH2 0xB93 JUMPI DUP5 SWAP2 PUSH2 0x1638 JUMPI JUMPDEST POP DUP1 MLOAD DUP1 ISZERO SWAP2 DUP3 ISZERO PUSH2 0x1603 JUMPI JUMPDEST POP POP PUSH2 0x15F1 JUMPI PUSH1 0x40 MLOAD PUSH4 0x70A08231 PUSH1 0xE0 SHL DUP2 MSTORE ADDRESS PUSH1 0x4 DUP3 ADD MSTORE SWAP1 PUSH1 0x20 DUP3 PUSH1 0x24 DUP2 PUSH32 0x0 PUSH1 0x1 PUSH1 0x1 PUSH1 0xA0 SHL SUB AND GAS STATICCALL DUP1 ISZERO PUSH2 0xB93 JUMPI DUP5 SWAP1 PUSH2 0x15BD JUMPI JUMPDEST PUSH2 0x126A SWAP3 POP PUSH2 0x1777 JUMP JUMPDEST PUSH1 0x84 DUP1 CALLDATALOAD ADD CALLDATALOAD DUP2 LT PUSH2 0x15AB JUMPI PUSH2 0x1301 SWAP2 DUP4 SWAP2 PUSH32 0x0 PUSH1 0x1 PUSH1 0x1 PUSH1 0xA0 SHL SUB AND SWAP1 PUSH2 0x12D2 DUP2 DUP4 PUSH32 0x0 PUSH2 0x19D9 JUMP JUMPDEST DUP4 PUSH1 0x40 MLOAD DUP1 SWAP7 DUP2 SWAP6 DUP3 SWAP5 PUSH4 0x38ED1739 PUSH1 0xE0 SHL DUP5 MSTORE PUSH1 0xC4 PUSH1 0x84 CALLDATALOAD ADD CALLDATALOAD SWAP2 ADDRESS SWAP2 PUSH1 0xA4 PUSH1 0x84 CALLDATALOAD ADD CALLDATALOAD SWAP1 PUSH1 0x4 DUP8 ADD PUSH2 0x195B JUMP JUMPDEST SUB SWAP3 GAS CALL SWAP1 DUP2 ISZERO PUSH2 0x15A0 JUMPI DUP3 SWAP2 PUSH2 0x157E JUMPI JUMPDEST POP DUP1 MLOAD DUP1 ISZERO SWAP2 DUP3 ISZERO PUSH2 0x155D JUMPI JUMPDEST POP POP PUSH2 0x154B JUMPI PUSH1 0x40 MLOAD PUSH4 0x70A08231 PUSH1 0xE0 SHL DUP2 MSTORE ADDRESS PUSH1 0x4 DUP3 ADD MSTORE SWAP1 PUSH1 0x20 DUP3 PUSH1 0x24 DUP2 PUSH32 0x0 PUSH1 0x1 PUSH1 0x1 PUSH1 0xA0 SHL SUB AND GAS STATICCALL SWAP2 DUP3 ISZERO PUSH2 0x153E JUMPI DUP2 SWAP3 PUSH2 0x150A JUMPI JUMPDEST POP PUSH2 0x13AA PUSH2 0x138C PUSH1 0x44 CALLDATALOAD PUSH1 0x24 CALLDATALOAD PUSH2 0x179A JUMP JUMPDEST PUSH1 0x1 SLOAD SWAP1 SWAP3 POP PUSH1 0x84 CALLDATALOAD PUSH1 0xE4 ADD CALLDATALOAD SWAP1 DUP1 DUP3 GT ISZERO PUSH2 0x1503 JUMPI POP JUMPDEST DUP3 PUSH2 0x179A JUMP JUMPDEST DUP3 LT PUSH2 0x146F JUMPI PUSH2 0x140D SWAP2 PUSH2 0x1408 DUP3 PUSH32 0x0 PUSH1 0x1 PUSH1 0x1 PUSH1 0xA0 SHL SUB AND PUSH32 0x0 PUSH2 0x19D9 JUMP JUMPDEST PUSH2 0x1777 JUMP JUMPDEST PUSH1 0x40 MLOAD SWAP1 DUP2 MSTORE PUSH32 0x0 PUSH1 0x1 PUSH1 0x1 PUSH1 0xA0 SHL SUB AND SWAP1 PUSH32 0x2C72FE8180A839C49E14242E7B6171D2FAF7CC801E2AC1753A0EC125E789F4BB SWAP1 PUSH1 0x20 SWAP1 LOG2 PUSH1 0x20 PUSH1 0x40 MLOAD PUSH1 0x1 DUP2 MSTORE RETURN JUMPDEST PUSH1 0x40 MLOAD PUSH1 0x20 DUP2 MSTORE PUSH1 0x1F PUSH1 0x20 DUP3 ADD MSTORE PUSH32 0x496E73756666696369656E742070726F66697420616674657220737761707300 PUSH1 0x40 DUP3 ADD MSTORE PUSH32 0xF13B663FE84AFF22434620574A75DC276BD714815AC2A48AE312B25B080C6374 PUSH1 0x60 PUSH1 0x1 DUP1 PUSH1 0xA0 SHL SUB PUSH32 0x0 AND SWAP3 LOG2 PUSH1 0x40 MLOAD PUSH4 0x2723FC75 PUSH1 0xE1 SHL DUP2 MSTORE PUSH1 0x4 SWAP1 REVERT JUMPDEST SWAP1 POP PUSH2 0x13A4 JUMP JUMPDEST SWAP1 SWAP2 POP PUSH1 0x20 DUP2 RETURNDATASIZE PUSH1 0x20 GT PUSH2 0x1536 JUMPI JUMPDEST DUP2 PUSH2 0x1526 PUSH1 0x20 SWAP4 DUP4 PUSH2 0x17EB JUMP JUMPDEST DUP2 ADD SUB SLT PUSH2 0x4F0 JUMPI MLOAD SWAP1 CODESIZE PUSH2 0x137A JUMP JUMPDEST RETURNDATASIZE SWAP2 POP PUSH2 0x1519 JUMP JUMPDEST POP PUSH1 0x40 MLOAD SWAP1 RETURNDATASIZE SWAP1 DUP3 RETURNDATACOPY RETURNDATASIZE SWAP1 REVERT JUMPDEST PUSH1 0x40 MLOAD PUSH4 0x88E77725 PUSH1 0xE0 SHL DUP2 MSTORE PUSH1 0x4 SWAP1 REVERT JUMPDEST PUSH1 0x0 NOT DUP3 ADD SWAP3 POP SWAP1 DUP3 GT PUSH2 0x769 JUMPI SWAP1 PUSH2 0x1575 SWAP2 PUSH2 0x19C5 JUMP JUMPDEST MLOAD ISZERO CODESIZE DUP1 PUSH2 0x1320 JUMP JUMPDEST PUSH2 0x159A SWAP2 POP RETURNDATASIZE DUP1 DUP5 DUP4 RETURNDATACOPY PUSH2 0x1592 DUP2 DUP4 PUSH2 0x17EB JUMP JUMPDEST DUP2 ADD SWAP1 PUSH2 0x18E1 JUMP JUMPDEST CODESIZE PUSH2 0x1313 JUMP JUMPDEST PUSH1 0x40 MLOAD RETURNDATASIZE DUP5 DUP3 RETURNDATACOPY RETURNDATASIZE SWAP1 REVERT JUMPDEST PUSH1 0x40 MLOAD PUSH4 0x609A52F3 PUSH1 0xE0 SHL DUP2 MSTORE PUSH1 0x4 SWAP1 REVERT JUMPDEST POP PUSH1 0x20 DUP3 RETURNDATASIZE PUSH1 0x20 GT PUSH2 0x15E9 JUMPI JUMPDEST DUP2 PUSH2 0x15D7 PUSH1 0x20 SWAP4 DUP4 PUSH2 0x17EB JUMP JUMPDEST DUP2 ADD SUB SLT PUSH2 0xB9E JUMPI PUSH2 0x126A SWAP2 MLOAD PUSH2 0x1260 JUMP JUMPDEST RETURNDATASIZE SWAP2 POP PUSH2 0x15CA JUMP JUMPDEST PUSH1 0x40 MLOAD PUSH4 0x8D032FE7 PUSH1 0xE0 SHL DUP2 MSTORE PUSH1 0x4 SWAP1 REVERT JUMPDEST PUSH1 0x0 NOT DUP3 ADD SWAP3 POP SWAP1 DUP3 GT PUSH2 0x1624 JUMPI SWAP1 PUSH2 0x161B SWAP2 PUSH2 0x19C5 JUMP JUMPDEST MLOAD ISZERO CODESIZE DUP1 PUSH2 0x1207 JUMP JUMPDEST PUSH4 0x4E487B71 PUSH1 0xE0 SHL DUP6 MSTORE PUSH1 0x11 PUSH1 0x4 MSTORE PUSH1 0x24 DUP6 REVERT JUMPDEST PUSH2 0x164C SWAP2 POP RETURNDATASIZE DUP1 DUP7 DUP4 RETURNDATACOPY PUSH2 0x1592 DUP2 DUP4 PUSH2 0x17EB JUMP JUMPDEST CODESIZE PUSH2 0x11FA JUMP JUMPDEST SWAP2 POP PUSH1 0x20 DUP3 RETURNDATASIZE PUSH1 0x20 GT PUSH2 0x1680 JUMPI JUMPDEST DUP2 PUSH2 0x166D PUSH1 0x20 SWAP4 DUP4 PUSH2 0x17EB JUMP JUMPDEST DUP2 ADD SUB SLT PUSH2 0x379 JUMPI PUSH2 0x11E8 SWAP2 MLOAD SWAP2 PUSH2 0x1156 JUMP JUMPDEST RETURNDATASIZE SWAP2 POP PUSH2 0x1660 JUMP JUMPDEST DUP3 DUP1 REVERT JUMPDEST PUSH1 0x40 MLOAD PUSH4 0x6448D6E9 PUSH1 0xE1 SHL DUP2 MSTORE PUSH1 0x4 SWAP1 REVERT JUMPDEST PUSH1 0x40 MLOAD PUSH4 0x17FB43E5 PUSH1 0xE3 SHL DUP2 MSTORE PUSH1 0x4 SWAP1 REVERT JUMPDEST PUSH1 0x40 MLOAD PUSH4 0x238F27E5 PUSH1 0xE2 SHL DUP2 MSTORE PUSH1 0x4 SWAP1 REVERT JUMPDEST DUP5 DUP1 REVERT JUMPDEST SWAP1 POP CALLVALUE PUSH2 0x4F0 JUMPI DUP2 PUSH1 0x3 NOT CALLDATASIZE ADD SLT PUSH2 0x4F0 JUMPI DUP1 PUSH2 0x251C PUSH1 0x20 SWAP3 MSTORE RETURN JUMPDEST PUSH1 0x4 CALLDATALOAD SWAP1 PUSH1 0x1 PUSH1 0x1 PUSH1 0xA0 SHL SUB DUP3 AND DUP3 SUB PUSH2 0x2E1 JUMPI JUMP JUMPDEST CALLDATALOAD SWAP1 PUSH1 0x1 PUSH1 0x1 PUSH1 0xA0 SHL SUB DUP3 AND DUP3 SUB PUSH2 0x2E1 JUMPI JUMP JUMPDEST SWAP2 DUP2 PUSH1 0x1F DUP5 ADD SLT ISZERO PUSH2 0x2E1 JUMPI DUP3 CALLDATALOAD SWAP2 PUSH8 0xFFFFFFFFFFFFFFFF DUP4 GT PUSH2 0x2E1 JUMPI PUSH1 0x20 DUP1 DUP6 ADD SWAP5 DUP5 PUSH1 0x5 SHL ADD ADD GT PUSH2 0x2E1 JUMPI JUMP JUMPDEST SWAP2 SWAP1 DUP2 LT ISZERO PUSH2 0x174D JUMPI PUSH1 0x5 SHL ADD SWAP1 JUMP JUMPDEST PUSH4 0x4E487B71 PUSH1 0xE0 SHL PUSH1 0x0 MSTORE PUSH1 0x32 PUSH1 0x4 MSTORE PUSH1 0x24 PUSH1 0x0 REVERT JUMPDEST CALLDATALOAD PUSH1 0x1 PUSH1 0x1 PUSH1 0xA0 SHL SUB DUP2 AND DUP2 SUB PUSH2 0x2E1 JUMPI SWAP1 JUMP JUMPDEST SWAP2 SWAP1 DUP3 SUB SWAP2 DUP3 GT PUSH2 0x1784 JUMPI JUMP JUMPDEST PUSH4 0x4E487B71 PUSH1 0xE0 SHL PUSH1 0x0 MSTORE PUSH1 0x11 PUSH1 0x4 MSTORE PUSH1 0x24 PUSH1 0x0 REVERT JUMPDEST SWAP2 SWAP1 DUP3 ADD DUP1 SWAP3 GT PUSH2 0x1784 JUMPI JUMP JUMPDEST SWAP2 SWAP1 DUP1 DUP3 MSTORE PUSH1 0x20 DUP1 SWAP3 ADD SWAP3 SWAP2 PUSH1 0x0 JUMPDEST DUP3 DUP2 LT PUSH2 0x17C4 JUMPI POP POP POP POP SWAP1 JUMP JUMPDEST SWAP1 SWAP2 SWAP3 SWAP4 DUP3 DUP1 PUSH1 0x1 SWAP3 DUP4 DUP1 PUSH1 0xA0 SHL SUB PUSH2 0x17DC DUP10 PUSH2 0x16F8 JUMP JUMPDEST AND DUP2 MSTORE ADD SWAP6 ADD SWAP4 SWAP3 SWAP2 ADD PUSH2 0x17B6 JUMP JUMPDEST SWAP1 PUSH1 0x1F DUP1 NOT SWAP2 ADD AND DUP2 ADD SWAP1 DUP2 LT PUSH8 0xFFFFFFFFFFFFFFFF DUP3 GT OR PUSH2 0x180D JUMPI PUSH1 0x40 MSTORE JUMP JUMPDEST PUSH4 0x4E487B71 PUSH1 0xE0 SHL PUSH1 0x0 MSTORE PUSH1 0x41 PUSH1 0x4 MSTORE PUSH1 0x24 PUSH1 0x0 REVERT JUMPDEST SWAP2 SWAP1 DUP3 MLOAD SWAP3 DUP4 DUP3 MSTORE PUSH1 0x0 JUMPDEST DUP5 DUP2 LT PUSH2 0x184F JUMPI POP POP DUP3 PUSH1 0x0 PUSH1 0x20 DUP1 SWAP5 SWAP6 DUP5 ADD ADD MSTORE PUSH1 0x1F DUP1 NOT SWAP2 ADD AND ADD ADD SWAP1 JUMP JUMPDEST PUSH1 0x20 DUP2 DUP4 ADD DUP2 ADD MLOAD DUP5 DUP4 ADD DUP3 ADD MSTORE ADD PUSH2 0x182E JUMP JUMPDEST PUSH8 0xFFFFFFFFFFFFFFFF DUP2 GT PUSH2 0x180D JUMPI PUSH1 0x5 SHL PUSH1 0x20 ADD SWAP1 JUMP JUMPDEST DUP2 PUSH1 0x1F DUP3 ADD SLT ISZERO PUSH2 0x2E1 JUMPI DUP1 CALLDATALOAD SWAP2 PUSH2 0x1892 DUP4 PUSH2 0x1863 JUMP JUMPDEST SWAP3 PUSH2 0x18A0 PUSH1 0x40 MLOAD SWAP5 DUP6 PUSH2 0x17EB JUMP JUMPDEST DUP1 DUP5 MSTORE PUSH1 0x20 SWAP3 DUP4 DUP1 DUP7 ADD SWAP3 PUSH1 0x5 SHL DUP3 ADD ADD SWAP3 DUP4 GT PUSH2 0x2E1 JUMPI DUP4 ADD SWAP1 JUMPDEST DUP3 DUP3 LT PUSH2 0x18CA JUMPI POP POP POP POP SWAP1 JUMP JUMPDEST DUP4 DUP1 SWAP2 PUSH2 0x18D6 DUP5 PUSH2 0x16F8 JUMP JUMPDEST DUP2 MSTORE ADD SWAP2 ADD SWAP1 PUSH2 0x18BC JUMP JUMPDEST PUSH1 0x20 SWAP1 DUP2 DUP2 DUP5 SUB SLT PUSH2 0x2E1 JUMPI DUP1 MLOAD SWAP1 PUSH8 0xFFFFFFFFFFFFFFFF DUP3 GT PUSH2 0x2E1 JUMPI ADD SWAP2 DUP1 PUSH1 0x1F DUP5 ADD SLT ISZERO PUSH2 0x2E1 JUMPI DUP3 MLOAD PUSH2 0x1917 DUP2 PUSH2 0x1863 JUMP JUMPDEST SWAP4 PUSH2 0x1925 PUSH1 0x40 MLOAD SWAP6 DUP7 PUSH2 0x17EB JUMP JUMPDEST DUP2 DUP6 MSTORE DUP4 DUP1 DUP7 ADD SWAP3 PUSH1 0x5 SHL DUP3 ADD ADD SWAP3 DUP4 GT PUSH2 0x2E1 JUMPI DUP4 ADD SWAP1 JUMPDEST DUP3 DUP3 LT PUSH2 0x194C JUMPI POP POP POP POP SWAP1 JUMP JUMPDEST DUP2 MLOAD DUP2 MSTORE SWAP1 DUP4 ADD SWAP1 DUP4 ADD PUSH2 0x193E JUMP JUMPDEST SWAP3 SWAP2 SWAP1 SWAP6 SWAP5 SWAP4 SWAP6 PUSH1 0xA0 DUP5 ADD SWAP1 DUP5 MSTORE PUSH1 0x20 SWAP2 DUP3 DUP6 ADD MSTORE PUSH1 0xA0 PUSH1 0x40 DUP6 ADD MSTORE DUP3 MLOAD DUP1 SWAP2 MSTORE DUP2 PUSH1 0xC0 DUP6 ADD SWAP4 ADD SWAP2 PUSH1 0x0 JUMPDEST DUP3 DUP2 LT PUSH2 0x19A8 JUMPI POP POP POP POP SWAP1 PUSH1 0x80 SWAP2 SWAP5 PUSH1 0x1 DUP1 PUSH1 0xA0 SHL SUB AND PUSH1 0x60 DUP3 ADD MSTORE ADD MSTORE JUMP JUMPDEST DUP4 MLOAD PUSH1 0x1 PUSH1 0x1 PUSH1 0xA0 SHL SUB AND DUP6 MSTORE SWAP4 DUP2 ADD SWAP4 SWAP3 DUP2 ADD SWAP3 PUSH1 0x1 ADD PUSH2 0x1987 JUMP JUMPDEST DUP1 MLOAD DUP3 LT ISZERO PUSH2 0x174D JUMPI PUSH1 0x20 SWAP2 PUSH1 0x5 SHL ADD ADD SWAP1 JUMP JUMPDEST PUSH1 0x40 MLOAD PUSH4 0x95EA7B3 PUSH1 0xE0 SHL PUSH1 0x20 DUP3 ADD DUP2 DUP2 MSTORE PUSH1 0x1 PUSH1 0x1 PUSH1 0xA0 SHL SUB DUP6 AND PUSH1 0x24 DUP5 ADD MSTORE PUSH1 0x44 DUP1 DUP5 ADD SWAP7 SWAP1 SWAP7 MSTORE SWAP5 DUP3 MSTORE SWAP5 SWAP4 SWAP1 SWAP3 PUSH2 0x1A15 PUSH1 0x64 DUP6 PUSH2 0x17EB JUMP JUMPDEST DUP4 MLOAD PUSH1 0x0 SWAP3 PUSH1 0x1 PUSH1 0x1 PUSH1 0xA0 SHL SUB SWAP3 SWAP2 DUP6 DUP5 AND SWAP2 DUP6 SWAP2 DUP3 SWAP2 DUP3 DUP6 GAS CALL SWAP1 PUSH2 0x1A39 PUSH2 0x1C0B JUMP JUMPDEST DUP3 PUSH2 0x1AC9 JUMPI JUMPDEST POP DUP2 PUSH2 0x1ABE JUMPI JUMPDEST POP ISZERO PUSH2 0x1A56 JUMPI JUMPDEST POP POP POP POP POP SWAP1 POP JUMP JUMPDEST PUSH1 0x40 MLOAD SWAP7 PUSH1 0x20 DUP9 ADD MSTORE AND PUSH1 0x24 DUP7 ADD MSTORE DUP1 PUSH1 0x44 DUP7 ADD MSTORE PUSH1 0x44 DUP6 MSTORE PUSH1 0x80 DUP6 ADD SWAP1 DUP6 DUP3 LT PUSH8 0xFFFFFFFFFFFFFFFF DUP4 GT OR PUSH2 0x1AAA JUMPI POP PUSH2 0x1A9F SWAP4 SWAP5 PUSH2 0x1A9A SWAP2 PUSH1 0x40 MSTORE DUP3 PUSH2 0x1B13 JUMP JUMPDEST PUSH2 0x1B13 JUMP JUMPDEST DUP1 CODESIZE DUP1 DUP1 DUP1 DUP1 PUSH2 0x1A4D JUMP JUMPDEST PUSH4 0x4E487B71 PUSH1 0xE0 SHL DUP2 MSTORE PUSH1 0x41 PUSH1 0x4 MSTORE PUSH1 0x24 SWAP1 REVERT JUMPDEST SWAP1 POP EXTCODESIZE ISZERO ISZERO CODESIZE PUSH2 0x1A46 JUMP JUMPDEST DUP1 MLOAD SWAP2 SWAP3 POP DUP2 ISZERO SWAP2 DUP3 ISZERO PUSH2 0x1AE1 JUMPI JUMPDEST POP POP SWAP1 CODESIZE PUSH2 0x1A3F JUMP JUMPDEST PUSH2 0x1AF4 SWAP3 POP PUSH1 0x20 DUP1 SWAP2 DUP4 ADD ADD SWAP2 ADD PUSH2 0x1AFB JUMP JUMPDEST CODESIZE DUP1 PUSH2 0x1AD8 JUMP JUMPDEST SWAP1 DUP2 PUSH1 0x20 SWAP2 SUB SLT PUSH2 0x2E1 JUMPI MLOAD DUP1 ISZERO ISZERO DUP2 SUB PUSH2 0x2E1 JUMPI SWAP1 JUMP JUMPDEST PUSH1 0x40 DUP1 MLOAD SWAP1 DUP2 ADD SWAP2 PUSH1 0x1 PUSH1 0x1 PUSH1 0xA0 SHL SUB AND PUSH8 0xFFFFFFFFFFFFFFFF DUP4 GT DUP3 DUP5 LT OR PUSH2 0x180D JUMPI PUSH2 0x1B83 SWAP3 PUSH1 0x40 MSTORE PUSH1 0x0 DUP1 PUSH1 0x20 SWAP6 DUP7 DUP6 MSTORE PUSH32 0x5361666545524332303A206C6F772D6C6576656C2063616C6C206661696C6564 DUP8 DUP7 ADD MSTORE DUP7 DUP2 MLOAD SWAP2 ADD DUP3 DUP6 GAS CALL PUSH2 0x1B7D PUSH2 0x1C0B JUMP JUMPDEST SWAP2 PUSH2 0x1C4B JUMP JUMPDEST DUP1 MLOAD SWAP1 DUP3 DUP3 ISZERO SWAP3 DUP4 ISZERO PUSH2 0x1BF3 JUMPI JUMPDEST POP POP POP ISZERO PUSH2 0x1B9C JUMPI POP JUMP JUMPDEST PUSH1 0x84 SWAP1 PUSH1 0x40 MLOAD SWAP1 PUSH3 0x461BCD PUSH1 0xE5 SHL DUP3 MSTORE PUSH1 0x4 DUP3 ADD MSTORE PUSH1 0x2A PUSH1 0x24 DUP3 ADD MSTORE PUSH32 0x5361666545524332303A204552433230206F7065726174696F6E20646964206E PUSH1 0x44 DUP3 ADD MSTORE PUSH10 0x1BDD081CDD58D8D95959 PUSH1 0xB2 SHL PUSH1 0x64 DUP3 ADD MSTORE REVERT JUMPDEST PUSH2 0x1C03 SWAP4 POP DUP3 ADD DUP2 ADD SWAP2 ADD PUSH2 0x1AFB JUMP JUMPDEST CODESIZE DUP3 DUP2 PUSH2 0x1B91 JUMP JUMPDEST RETURNDATASIZE ISZERO PUSH2 0x1C46 JUMPI RETURNDATASIZE SWAP1 PUSH8 0xFFFFFFFFFFFFFFFF DUP3 GT PUSH2 0x180D JUMPI PUSH1 0x40 MLOAD SWAP2 PUSH2 0x1C3A PUSH1 0x1F DUP3 ADD PUSH1 0x1F NOT AND PUSH1 0x20 ADD DUP5 PUSH2 0x17EB JUMP JUMPDEST DUP3 MSTORE RETURNDATASIZE PUSH1 0x0 PUSH1 0x20 DUP5 ADD RETURNDATACOPY JUMP JUMPDEST PUSH1 0x60 SWAP1 JUMP JUMPDEST SWAP2 SWAP3 SWAP1 ISZERO PUSH2 0x1CAD JUMPI POP DUP2 MLOAD ISZERO PUSH2 0x1C5F JUMPI POP SWAP1 JUMP JUMPDEST EXTCODESIZE ISZERO PUSH2 0x1C68 JUMPI SWAP1 JUMP JUMPDEST PUSH1 0x40 MLOAD PUSH3 0x461BCD PUSH1 0xE5 SHL DUP2 MSTORE PUSH1 0x20 PUSH1 0x4 DUP3 ADD MSTORE PUSH1 0x1D PUSH1 0x24 DUP3 ADD MSTORE PUSH32 0x416464726573733A2063616C6C20746F206E6F6E2D636F6E7472616374000000 PUSH1 0x44 DUP3 ADD MSTORE PUSH1 0x64 SWAP1 REVERT JUMPDEST DUP3 MLOAD SWAP1 SWAP2 POP ISZERO PUSH2 0x1CC0 JUMPI POP DUP1 MLOAD SWAP1 PUSH1 0x20 ADD REVERT JUMPDEST PUSH1 0x40 MLOAD PUSH3 0x461BCD PUSH1 0xE5 SHL DUP2 MSTORE PUSH1 0x20 PUSH1 0x4 DUP3 ADD MSTORE SWAP1 DUP2 SWAP1 PUSH2 0x1CE4 SWAP1 PUSH1 0x24 DUP4 ADD SWAP1 PUSH2 0x1823 JUMP JUMPDEST SUB SWAP1 REVERT JUMPDEST PUSH1 0x40 MLOAD PUSH4 0xA9059CBB PUSH1 0xE0 SHL PUSH1 0x20 DUP3 ADD MSTORE PUSH1 0x1 PUSH1 0x1 PUSH1 0xA0 SHL SUB SWAP3 SWAP1 SWAP3 AND PUSH1 0x24 DUP4 ADD MSTORE PUSH1 0x44 DUP1 DUP4 ADD SWAP4 SWAP1 SWAP4 MSTORE SWAP2 DUP2 MSTORE PUSH2 0x1D24 SWAP2 PUSH2 0x1A9A PUSH1 0x64 DUP4 PUSH2 0x17EB JUMP JUMPDEST JUMP JUMPDEST CALLER PUSH1 0x0 MSTORE PUSH1 0x3 PUSH1 0x20 MSTORE PUSH1 0xFF PUSH1 0x40 PUSH1 0x0 KECCAK256 SLOAD AND DUP1 PUSH2 0x1D5A JUMPI JUMPDEST ISZERO PUSH2 0x1D56 JUMPI PUSH1 0x13 NOT CALLDATASIZE ADD CALLDATASIZE DUP2 GT PUSH2 0x1784 JUMPI CALLDATALOAD PUSH1 0x60 SHR SWAP1 JUMP JUMPDEST CALLER SWAP1 JUMP JUMPDEST POP PUSH1 0x14 CALLDATASIZE LT ISZERO PUSH2 0x1D3E JUMP INVALID LOG2 PUSH5 0x6970667358 0x22 SLT KECCAK256 0xD6 SWAP10 DIV SLT PUSH19 0x13FEBFC298FA206C041207F8AE9943B3A929 0x49 SWAP16 0xC2 0x21 PUSH31 0xFAACD764736F6C634300081400330000000000000000000000000000000000 "},"methodIdentifiers":{"MAX_DEADLINE_OFFSET()":"617a2166","MIN_SLIPPAGE_BPS()":"19530a82","TIMELOCK_DURATION()":"4623c81e","aavePool()":"a03e4bc3","cancelWithdrawal()":"22611280","confirmForwarder(address)":"72e76101","executeArb(uint256,address[],address[],uint256,uint256,uint256,uint256)":"7435bf64","executeOperation(address,uint256,uint256,address,bytes)":"1b11d0ff","executeWithdrawal()":"fa45aa00","initiateWithdrawal()":"b51d1d4f","isTrustedForwarder(address)":"572b6c05","maxBorrowPct()":"76ac6566","owner()":"8da5cb5b","pendingForwarderTime(address)":"391e09b9","pendingWithdrawalTime()":"9ffdaa9c","profitThresholdWei()":"6cdffb25","proposeForwarder(address)":"926640e9","revokeForwarder(address)":"7f396470","setMaxBorrowPct(uint256)":"9e0fa5f3","setProfitThreshold(uint256)":"28821182","sushiRouter()":"6d13582c","sweepTokens(address)":"f5f6d3af","trustedForwarderMap(address)":"5f35f7cc","uniRouter()":"a0e47bf6","usdc()":"3e413bee","weth()":"3fc8cef3"}}}}}