{"contracts/mocks/MockRouter.sol":{"MockRouter":{"abi":[{"inputs":[],"name":"exchangeRateDenominator","outputs":[{"internalType":"uint256","name":"","type":"uint256"}],"stateMutability":"view","type":"function"},{"inputs":[],"name":"exchangeRateNumerator","outputs":[{"internalType":"uint256","name":"","type":"uint256"}],"stateMutability":"view","type":"function"},{"inputs":[{"internalType":"uint256","name":"numerator","type":"uint256"},{"internalType":"uint256","name":"denominator","type":"uint256"}],"name":"setExchangeRate","outputs":[],"stateMutability":"nonpayable","type":"function"},{"inputs":[{"internalType":"uint256","name":"expectedAmountIn","type":"uint256"},{"internalType":"uint256","name":"expectedAmountOut","type":"uint256"}],"name":"setMockAmountOut","outputs":[],"stateMutability":"nonpayable","type":"function"},{"inputs":[{"internalType":"uint256","name":"amountIn","type":"uint256"},{"internalType":"uint256","name":"amountOutMin","type":"uint256"},{"internalType":"address[]","name":"path","type":"address[]"},{"internalType":"address","name":"to","type":"address"},{"internalType":"uint256","name":"deadline","type":"uint256"}],"name":"swapExactTokensForTokens","outputs":[{"internalType":"uint256[]","name":"amounts","type":"uint256[]"}],"stateMutability":"nonpayable","type":"function"}],"evm":{"bytecode":{"linkReferences":{},"object":"6080806040523461002057606460005560646001556104ba90816100268239f35b600080fdfe608060408181526004908136101561001657600080fd5b600092833560e01c92836338ed1739146100df57505081634a011bf7146100b7578163a2b6070c1461009a578163e54c75e214610077575063f55ecf061461005d57600080fd5b346100745761006b366103ed565b90825560015580f35b80fd5b9050346100965781600319360112610096576020906001549051908152f35b5080fd5b905034610096578160031936011261009657602091549051908152f35b8234610074576100c6366103ed565b816100d75750508080556001805580f35b825560015580f35b909250346103e55760a03660031901126103e55780359260449485359267ffffffffffffffff938481116103e957366023820112156103e957808201359485116103e957602436818760051b840101116103e5576001600160a01b03946064358681169491908590036103e157600288106103b45750608435421161038a5786156102a65761016f828401610408565b9960001988019088821161037857888210156102b7578a9b889161019a868560051b80990101610408565b918c519e8f906323b872dd60e01b825233888301523089830152838201526064818c60209e8f95165af19d8e1561036e578d9e9d9c9d610351575b508854808d029e8f04148c15171561033f5760019d8e5490811561032d5704978635891061030057908a92918a8f51958694859363a9059cbb60e01b85528a8501528c8b850152165af180156102f6576102c9575b5061024c6102378961046c565b986102448c519a8b61041c565b808a5261046c565b8888019990601f1901368b378851156102b7578952875111156102a657505084018301528451828152925183830181905283860194879390925b8281106102935785870386f35b8351875295810195928101928401610286565b634e487b7160e01b85526032905283fd5b634e487b7160e01b8752603283528387fd5b6102e890883d8a116102ef575b6102e0818361041c565b810190610454565b503861022a565b503d6102d6565b8b513d89823e3d90fd5b508467536c69707061676560c01b6064928f898e600892519562461bcd60e51b8752860152840152820152fd5b634e487b7160e01b8b5260128752878bfd5b634e487b7160e01b8952601185528589fd5b610367908b3d8d116102ef576102e0818361041c565b50386101d5565b8c513d8b823e3d90fd5b634e487b7160e01b8752601183528387fd5b66115e1c1a5c995960ca1b8a600760649460208c519562461bcd60e51b8752860152840152820152fd5b6b092dcecc2d8d2c840e0c2e8d60a31b8b600c85602060649662461bcd60e51b8752860152840152820152fd5b8580fd5b8380fd5b8280fd5b6040906003190112610403576004359060243590565b600080fd5b356001600160a01b03811681036104035790565b90601f8019910116810190811067ffffffffffffffff82111761043e57604052565b634e487b7160e01b600052604160045260246000fd5b90816020910312610403575180151581036104035790565b67ffffffffffffffff811161043e5760051b6020019056fea264697066735822122012f1e74c9c86796095da6eb9ffda70ba9e5440d7c6a4def1d66192d0e4d3adec64736f6c63430008140033","opcodes":"PUSH1 0x80 DUP1 PUSH1 0x40 MSTORE CALLVALUE PUSH2 0x20 JUMPI PUSH1 0x64 PUSH1 0x0 SSTORE PUSH1 0x64 PUSH1 0x1 SSTORE PUSH2 0x4BA SWAP1 DUP2 PUSH2 0x26 DUP3 CODECOPY RETURN JUMPDEST PUSH1 0x0 DUP1 REVERT INVALID PUSH1 0x80 PUSH1 0x40 DUP2 DUP2 MSTORE PUSH1 0x4 SWAP1 DUP2 CALLDATASIZE LT ISZERO PUSH2 0x16 JUMPI PUSH1 0x0 DUP1 REVERT JUMPDEST PUSH1 0x0 SWAP3 DUP4 CALLDATALOAD PUSH1 0xE0 SHR SWAP3 DUP4 PUSH4 0x38ED1739 EQ PUSH2 0xDF JUMPI POP POP DUP2 PUSH4 0x4A011BF7 EQ PUSH2 0xB7 JUMPI DUP2 PUSH4 0xA2B6070C EQ PUSH2 0x9A JUMPI DUP2 PUSH4 0xE54C75E2 EQ PUSH2 0x77 JUMPI POP PUSH4 0xF55ECF06 EQ PUSH2 0x5D JUMPI PUSH1 0x0 DUP1 REVERT JUMPDEST CALLVALUE PUSH2 0x74 JUMPI PUSH2 0x6B CALLDATASIZE PUSH2 0x3ED JUMP JUMPDEST SWAP1 DUP3 SSTORE PUSH1 0x1 SSTORE DUP1 RETURN JUMPDEST DUP1 REVERT JUMPDEST SWAP1 POP CALLVALUE PUSH2 0x96 JUMPI DUP2 PUSH1 0x3 NOT CALLDATASIZE ADD SLT PUSH2 0x96 JUMPI PUSH1 0x20 SWAP1 PUSH1 0x1 SLOAD SWAP1 MLOAD SWAP1 DUP2 MSTORE RETURN JUMPDEST POP DUP1 REVERT JUMPDEST SWAP1 POP CALLVALUE PUSH2 0x96 JUMPI DUP2 PUSH1 0x3 NOT CALLDATASIZE ADD SLT PUSH2 0x96 JUMPI PUSH1 0x20 SWAP2 SLOAD SWAP1 MLOAD SWAP1 DUP2 MSTORE RETURN JUMPDEST DUP3 CALLVALUE PUSH2 0x74 JUMPI PUSH2 0xC6 CALLDATASIZE PUSH2 0x3ED JUMP JUMPDEST DUP2 PUSH2 0xD7 JUMPI POP POP DUP1 DUP1 SSTORE PUSH1 0x1 DUP1 SSTORE DUP1 RETURN JUMPDEST DUP3 SSTORE PUSH1 0x1 SSTORE DUP1 RETURN JUMPDEST SWAP1 SWAP3 POP CALLVALUE PUSH2 0x3E5 JUMPI PUSH1 0xA0 CALLDATASIZE PUSH1 0x3 NOT ADD SLT PUSH2 0x3E5 JUMPI DUP1 CALLDATALOAD SWAP3 PUSH1 0x44 SWAP5 DUP6 CALLDATALOAD SWAP3 PUSH8 0xFFFFFFFFFFFFFFFF SWAP4 DUP5 DUP2 GT PUSH2 0x3E9 JUMPI CALLDATASIZE PUSH1 0x23 DUP3 ADD SLT ISZERO PUSH2 0x3E9 JUMPI DUP1 DUP3 ADD CALLDATALOAD SWAP5 DUP6 GT PUSH2 0x3E9 JUMPI PUSH1 0x24 CALLDATASIZE DUP2 DUP8 PUSH1 0x5 SHL DUP5 ADD ADD GT PUSH2 0x3E5 JUMPI PUSH1 0x1 PUSH1 0x1 PUSH1 0xA0 SHL SUB SWAP5 PUSH1 0x64 CALLDATALOAD DUP7 DUP2 AND SWAP5 SWAP2 SWAP1 DUP6 SWAP1 SUB PUSH2 0x3E1 JUMPI PUSH1 0x2 DUP9 LT PUSH2 0x3B4 JUMPI POP PUSH1 0x84 CALLDATALOAD TIMESTAMP GT PUSH2 0x38A JUMPI DUP7 ISZERO PUSH2 0x2A6 JUMPI PUSH2 0x16F DUP3 DUP5 ADD PUSH2 0x408 JUMP JUMPDEST SWAP10 PUSH1 0x0 NOT DUP9 ADD SWAP1 DUP9 DUP3 GT PUSH2 0x378 JUMPI DUP9 DUP3 LT ISZERO PUSH2 0x2B7 JUMPI DUP11 SWAP12 DUP9 SWAP2 PUSH2 0x19A DUP7 DUP6 PUSH1 0x5 SHL DUP1 SWAP10 ADD ADD PUSH2 0x408 JUMP JUMPDEST SWAP2 DUP13 MLOAD SWAP15 DUP16 SWAP1 PUSH4 0x23B872DD PUSH1 0xE0 SHL DUP3 MSTORE CALLER DUP9 DUP4 ADD MSTORE ADDRESS DUP10 DUP4 ADD MSTORE DUP4 DUP3 ADD MSTORE PUSH1 0x64 DUP2 DUP13 PUSH1 0x20 SWAP15 DUP16 SWAP6 AND GAS CALL SWAP14 DUP15 ISZERO PUSH2 0x36E JUMPI DUP14 SWAP15 SWAP14 SWAP13 SWAP14 PUSH2 0x351 JUMPI JUMPDEST POP DUP9 SLOAD DUP1 DUP14 MUL SWAP15 DUP16 DIV EQ DUP13 ISZERO OR ISZERO PUSH2 0x33F JUMPI PUSH1 0x1 SWAP14 DUP15 SLOAD SWAP1 DUP2 ISZERO PUSH2 0x32D JUMPI DIV SWAP8 DUP7 CALLDATALOAD DUP10 LT PUSH2 0x300 JUMPI SWAP1 DUP11 SWAP3 SWAP2 DUP11 DUP16 MLOAD SWAP6 DUP7 SWAP5 DUP6 SWAP4 PUSH4 0xA9059CBB PUSH1 0xE0 SHL DUP6 MSTORE DUP11 DUP6 ADD MSTORE DUP13 DUP12 DUP6 ADD MSTORE AND GAS CALL DUP1 ISZERO PUSH2 0x2F6 JUMPI PUSH2 0x2C9 JUMPI JUMPDEST POP PUSH2 0x24C PUSH2 0x237 DUP10 PUSH2 0x46C JUMP JUMPDEST SWAP9 PUSH2 0x244 DUP13 MLOAD SWAP11 DUP12 PUSH2 0x41C JUMP JUMPDEST DUP1 DUP11 MSTORE PUSH2 0x46C JUMP JUMPDEST DUP9 DUP9 ADD SWAP10 SWAP1 PUSH1 0x1F NOT ADD CALLDATASIZE DUP12 CALLDATACOPY DUP9 MLOAD ISZERO PUSH2 0x2B7 JUMPI DUP10 MSTORE DUP8 MLOAD GT ISZERO PUSH2 0x2A6 JUMPI POP POP DUP5 ADD DUP4 ADD MSTORE DUP5 MLOAD DUP3 DUP2 MSTORE SWAP3 MLOAD DUP4 DUP4 ADD DUP2 SWAP1 MSTORE DUP4 DUP7 ADD SWAP5 DUP8 SWAP4 SWAP1 SWAP3 JUMPDEST DUP3 DUP2 LT PUSH2 0x293 JUMPI DUP6 DUP8 SUB DUP7 RETURN JUMPDEST DUP4 MLOAD DUP8 MSTORE SWAP6 DUP2 ADD SWAP6 SWAP3 DUP2 ADD SWAP3 DUP5 ADD PUSH2 0x286 JUMP JUMPDEST PUSH4 0x4E487B71 PUSH1 0xE0 SHL DUP6 MSTORE PUSH1 0x32 SWAP1 MSTORE DUP4 REVERT JUMPDEST PUSH4 0x4E487B71 PUSH1 0xE0 SHL DUP8 MSTORE PUSH1 0x32 DUP4 MSTORE DUP4 DUP8 REVERT JUMPDEST PUSH2 0x2E8 SWAP1 DUP9 RETURNDATASIZE DUP11 GT PUSH2 0x2EF JUMPI JUMPDEST PUSH2 0x2E0 DUP2 DUP4 PUSH2 0x41C JUMP JUMPDEST DUP2 ADD SWAP1 PUSH2 0x454 JUMP JUMPDEST POP CODESIZE PUSH2 0x22A JUMP JUMPDEST POP RETURNDATASIZE PUSH2 0x2D6 JUMP JUMPDEST DUP12 MLOAD RETURNDATASIZE DUP10 DUP3 RETURNDATACOPY RETURNDATASIZE SWAP1 REVERT JUMPDEST POP DUP5 PUSH8 0x536C697070616765 PUSH1 0xC0 SHL PUSH1 0x64 SWAP3 DUP16 DUP10 DUP15 PUSH1 0x8 SWAP3 MLOAD SWAP6 PUSH3 0x461BCD PUSH1 0xE5 SHL DUP8 MSTORE DUP7 ADD MSTORE DUP5 ADD MSTORE DUP3 ADD MSTORE REVERT JUMPDEST PUSH4 0x4E487B71 PUSH1 0xE0 SHL DUP12 MSTORE PUSH1 0x12 DUP8 MSTORE DUP8 DUP12 REVERT JUMPDEST PUSH4 0x4E487B71 PUSH1 0xE0 SHL DUP10 MSTORE PUSH1 0x11 DUP6 MSTORE DUP6 DUP10 REVERT JUMPDEST PUSH2 0x367 SWAP1 DUP12 RETURNDATASIZE DUP14 GT PUSH2 0x2EF JUMPI PUSH2 0x2E0 DUP2 DUP4 PUSH2 0x41C JUMP JUMPDEST POP CODESIZE PUSH2 0x1D5 JUMP JUMPDEST DUP13 MLOAD RETURNDATASIZE DUP12 DUP3 RETURNDATACOPY RETURNDATASIZE SWAP1 REVERT JUMPDEST PUSH4 0x4E487B71 PUSH1 0xE0 SHL DUP8 MSTORE PUSH1 0x11 DUP4 MSTORE DUP4 DUP8 REVERT JUMPDEST PUSH7 0x115E1C1A5C9959 PUSH1 0xCA SHL DUP11 PUSH1 0x7 PUSH1 0x64 SWAP5 PUSH1 0x20 DUP13 MLOAD SWAP6 PUSH3 0x461BCD PUSH1 0xE5 SHL DUP8 MSTORE DUP7 ADD MSTORE DUP5 ADD MSTORE DUP3 ADD MSTORE REVERT JUMPDEST PUSH12 0x92DCECC2D8D2C840E0C2E8D PUSH1 0xA3 SHL DUP12 PUSH1 0xC DUP6 PUSH1 0x20 PUSH1 0x64 SWAP7 PUSH3 0x461BCD PUSH1 0xE5 SHL DUP8 MSTORE DUP7 ADD MSTORE DUP5 ADD MSTORE DUP3 ADD MSTORE REVERT JUMPDEST DUP6 DUP1 REVERT JUMPDEST DUP4 DUP1 REVERT JUMPDEST DUP3 DUP1 REVERT JUMPDEST PUSH1 0x40 SWAP1 PUSH1 0x3 NOT ADD SLT PUSH2 0x403 JUMPI PUSH1 0x4 CALLDATALOAD SWAP1 PUSH1 0x24 CALLDATALOAD SWAP1 JUMP JUMPDEST PUSH1 0x0 DUP1 REVERT JUMPDEST CALLDATALOAD PUSH1 0x1 PUSH1 0x1 PUSH1 0xA0 SHL SUB DUP2 AND DUP2 SUB PUSH2 0x403 JUMPI SWAP1 JUMP JUMPDEST SWAP1 PUSH1 0x1F DUP1 NOT SWAP2 ADD AND DUP2 ADD SWAP1 DUP2 LT PUSH8 0xFFFFFFFFFFFFFFFF DUP3 GT OR PUSH2 0x43E JUMPI PUSH1 0x40 MSTORE JUMP JUMPDEST PUSH4 0x4E487B71 PUSH1 0xE0 SHL PUSH1 0x0 MSTORE PUSH1 0x41 PUSH1 0x4 MSTORE PUSH1 0x24 PUSH1 0x0 REVERT JUMPDEST SWAP1 DUP2 PUSH1 0x20 SWAP2 SUB SLT PUSH2 0x403 JUMPI MLOAD DUP1 ISZERO ISZERO DUP2 SUB PUSH2 0x403 JUMPI SWAP1 JUMP JUMPDEST PUSH8 0xFFFFFFFFFFFFFFFF DUP2 GT PUSH2 0x43E JUMPI PUSH1 0x5 SHL PUSH1 0x20 ADD SWAP1 JUMP INVALID LOG2 PUSH5 0x6970667358 0x22 SLT KECCAK256 SLT CALL 0xE7 0x4C SWAP13 DUP7 PUSH26 0x6095DA6EB9FFDA70BA9E5440D7C6A4DEF1D66192D0E4D3ADEC64 PUSH20 0x6F6C634300081400330000000000000000000000 "},"methodIdentifiers":{"exchangeRateDenominator()":"e54c75e2","exchangeRateNumerator()":"a2b6070c","setExchangeRate(uint256,uint256)":"f55ecf06","setMockAmountOut(uint256,uint256)":"4a011bf7","swapExactTokensForTokens(uint256,uint256,address[],address,uint256)":"38ed1739"}}}}}